:020000040800F2
:10000000F4080020E508000841090008410900083B
:1000100041090008410900084109000800000000EA
:10002000000000000000000000000000410900087E
:1000300041090008000000004109000841090008CA
:100040004109000841090008410900084109000868
:100050004109000841090008410900084109000858
:1000600041090008410900089508000841090008F5
:100070004109000841090008410900084109000838
:100080004109000841090008410900084109000828
:100090004109000841090008410900080908000851
:1000A0004109000841090008410900084109000808
:1000B000E90500083906000841090008410900085F
:1000C00041090008410900084109000841090008E8
:1000D00041090008410900084109000841090008D8
:1000E00041090008410900084109000841090008C8
:1000F00041090008410900084109000841090008B8
:1001000041090008410900081D07000841090008CD
:100110004109000841090008410900086507000875
:100120004109000841090008410900084109000887
:100130004109000841090008410900084109000877
:100140004109000841090008410900084109000867
:100150004109000841090008410900084109000857
:100160004109000841090008410900084109000847
:100170004109000841090008410900084109000837
:10018000410900084109000880B582B000AF012193
:100190004FF4804000F094FC10233B6000233B713F
:1001A00010237B710123BB713B46184602F0F8F81F
:1001B0000421042000F0D8F800BF0837BD4680BDF8
:1001C00080B582B000AF01214FF4804000F078FC90
:1001D00020233B6000233B7110237B710123BB7103
:1001E0003B46184602F0DCF80521042000F0BCF87C
:1001F00000BF0837BD4680BD80B582B000AF012189
:100200004FF4804000F05CFC40233B6000233B71D6
:1002100010237B710123BB713B46184602F0C0F8E6
:100220000621042000F0A0F800BF0837BD4680BDBD
:1002300080B500AFFFF7A8FFFFF7C2FFFFF7DCFFB5
:1002400000BF80BD80B582B000AF0A233B710023A0
:100250007B710123BB710123FB713B1D184602F02A
:1002600055F900BF0837BD4680BD00BF80B582B0DC
:1002700000AF17233B7100237B710223BB71012365
:10028000FB713B1D184602F041F900BF0837BD461F
:1002900080BD00BF80B500AFFFF7D4FFFFF7E6FFDA
:1002A00000BF80BD80B582B000AF1C233B7101232D
:1002B0007B710023BB710123FB713B1D184602F0CB
:1002C00025F900BF0837BD4680BD00BF80B582B0AC
:1002D00000AF1D233B7101237B710123BB710123FF
:1002E000FB713B1D184602F011F900BF0837BD46EF
:1002F00080BD00BF80B582B000AF32233B710223C6
:100300007B710023BB710123FB713B1D184602F07A
:10031000FDF800BF0837BD4680BD00BF80B582B084
:1003200000AF37233B7100237B710023BB71012396
:10033000FB713B1D184602F0E9F800BF0837BD46C7
:1003400080BD00BF80B500AF4FF4C06002F0CCF8B4
:10035000FFF7A8FFFFF7BAFFFFF7CCFFFFF7DEFFBD
:10036000FFF798FF00BF80BD90B484B000AF034694
:100370000A46FB711346BB710023FB60BB7903F097
:1003800003039B000F2202FA03F3FB601649BB79BB
:100390009B08DBB21846144ABB799B08DBB20233D8
:1003A00052F82320FB68DB431A40831C41F82320CA
:1003B0000D48BB799B08DBB21C460B4ABB799B08F6
:1003C000DBB2023352F82320F979BB7903F003033F
:1003D0009B0001FA03F31A43A31C40F8232000BF3B
:1003E0001037BD4690BC70470038014080B582B0E0
:1003F00000AF0121102000F027FB4FF47C733B601D
:1004000000233B710023BB710223FB7103237B712B
:100410003B461946084801F071FA4FF480633B608F
:1004200001233B713B461946034801F067FA00BFC0
:100430000837BD4680BD00BF0010024080B582B0C5
:1004400000AF0121102000F0FFFA0F233B600123D1
:100450003B710023BB710223FB7103237B713B467D
:100460001946034801F04AFA00BF0837BD4680BD6F
:100470000010024080B582B000AF0121082000F0DA
:10048000E3FA02220C21104801F0FCFA02220D21AD
:100490000D4801F0F7FA02220E210B4801F0F2FAA2
:1004A00002220F21084801F0EDFA4FF470433B603F
:1004B00002233B713B461946034801F01FFA00BF77
:1004C0000837BD4680BD00BF000C024080B582B039
:1004D00000AF0121102000F0B7FA4FF400633B6039
:1004E00001233B7102237B710123FB713B461946BB
:1004F000034801F003FA00BF0837BD4680BD00BFC6
:100500000010024080B582B000AF0121022000F04F
:100510009BFA4FF460433B6002233B710023BB71A5
:100520000023FB7102237B713B4619460A4801F008
:10053000E5F905220D21084801F0A4FA05220E2153
:10054000054801F09FFA05220F21034801F09AFAAD
:1005500000BF0837BD4680BD0004024080B500AF33
:10056000FFF7D0FFFFF7B2FF00BF80BD80B582B0BC
:1005700000AF0121012000F067FA02233B60032352
:100580003B710023FB713B461946034801F0B6F965
:1005900000BF0837BD4680BD0000024080B582B074
:1005A00000AF4FF480533B6001233B710223FB718A
:1005B0003B461946034801F0A1F900BF0837BD4684
:1005C00080BD00BF0010024080B500AFFFF752FFB2
:1005D000FFF734FFFFF7C2FFFFF708FFFFF7C6FF83
:1005E000FFF7DCFF00BF80BD98B500AF01214FF0E1
:1005F000804002F009FB0346002B18D00D4BD3E9D5
:10060000003413F1FF3344F1FF340A4AC2E90034E5
:10061000084BD3E90034234304D100214FF080403C
:1006200002F04CF801214FF0804002F017FB00BFB0
:1006300098BD00BF2000002080B500AF0121104808
:1006400002F0E2FA0346002B18D04FF480610D4807
:1006500001F00AFA00210A4802F030F800210848A7
:1006600002F01EF80021084802F01AF8012106489D
:1006700002F024F80121024802F0F0FA00BF80BD28
:1006800000040040001002400014004080B500AF9C
:100690000121094802F012F84FF48061074801F087
:1006A000D5F9074B00221A70064B00221A70064B30
:1006B00000221A7000BF80BD0004004000100240FC
:1006C00004000020100000201800002080B400AFBB
:1006D0000C4B01221A700C4B4FF07E521A600B4BE0
:1006E00001221A700A4B4FF07E521A60094B012208
:1006F0001A70094B4FF07E521A6000BFBD4680BC95
:10070000704700BF040000200800002010000020F7
:100710001C000020180000200C00002080B500AF55
:1007200001210E4802F070FA0346002B13D00C4B47
:100730001B7883F00103DBB2002B06D000210748B1
:1007400001F0BCFFFFF7C2FF01E0FFF79FFF0121AF
:10075000024802F083FA00BF80BD00BF000C0040D9
:100760004C00002080B500AF01211D4802F04CFA7A
:100770000346002B31D00021194801F09FFF194B8F
:100780001B7883F00103DBB2002B06D0154B01224E
:100790001A701549154801F059FA154B1B7883F06A
:1007A0000103DBB2002B06D0114B01221A70114954
:1007B000114801F04BFA114B1B7883F00103DBB2B7
:1007C000002B06D00D4B01221A700D490D4801F087
:1007D0003DFA0121024802F041FA00BF80BD00BF8E
:1007E0000014004004000020280000200800002021
:1007F000100000203C0000201C00002018000020F9
:10080000340000200C00002080B584B004AF20200C
:1008100001F038FE0346002B0ED0134B0293134B0E
:100820000193134B0093134B20221349134801F0FB
:1008300073F9202001F04AFE402001F023FE034618
:10084000002B0ED00E4B02930E4B01930E4B0093D8
:100850000E4B402208490E4801F05EF9402001F09D
:1008600035FE00BFBD4680BD3C00002010000020CA
:100870001400002030000020001002401C00002066
:1008800034000020180000202C0000200000002070
:100890000C00002080B584B004AF102001F0F2FD00
:1008A0000346002B0ED0094B0293094B0193094BD1
:1008B0000093094B10220949094801F02DF9102035
:1008C00001F004FE00BFBD4680BD00BF280000202F
:1008D00004000020480000204000002000100240DA
:1008E0000800002080B582B000AF104B7B60104B39
:1008F0003B6007E03B681A1D3A607A68111D796019
:1009000012681A603B680B4A9342F3D30A480B49BA
:100910004FF000028842B8BF40F8042BFADB00F029
:100920006BF800BF0837BD4680BD00BFF036000839
:10093000000000200000002000000020F400002043
:1009400080B400AFFEE700BF80B500AF01F098F9BA
:10095000FFF73AFE00F062FD00F05AFAFFF7F2FCF2
:10096000FFF766FC01F074FC00BF80BD80B500AFEE
:100970001D4800F0BDFB00BF02211B4800F0D4FB66
:100980000346002BF8D0184800F0C2FB03461A4675
:10099000164B1A60154B1B6840F6020293420DDDA0
:1009A0004FF48051124801F051F84FF48051104833
:1009B00001F032F803461A460E4B1A600B4B1B68C7
:1009C000B3F5FA6F0DDA4FF48051094801F04CF895
:1009D0004FF48051064801F01FF803461A46054BB4
:1009E0001A6000BF80BD00BF00200140440000200D
:1009F000001002406800002080B500AFFFF7A4FFA0
:100A000001210B4801F05AFE01210A4801F056FE6F
:100A1000094B00221A70094B094A1A6000F05AFF6C
:100A2000044B5B6A1A46074B1A60FFF79FFFF5E716
:100A300000080040000C004060000020C4000020BE
:100A40003C080040C800002080B483B000AF78604C
:100A50000B46FB70FB78002B06D00949084B1A6B3C
:100A60007B6813430B6306E00549054B1A6B7B68F3
:100A7000DB4313400B6300BF0C37BD4680BC70479F
:100A80000038024080B483B000AF78600B46FB7042
:100A9000FB78002B06D00949084B1A6C7B6813437E
:100AA0000B6406E00549054B1A6C7B68DB43134079
:100AB0000B6400BF0C37BD4680BC70470038024055
:100AC00080B483B000AF78600B46FB70FB78002BDE
:100AD00006D00949084B5A6C7B6813434B6406E007
:100AE0000549054B5A6C7B68DB4313404B6400BFE0
:100AF0000C37BD4680BC70470038024090B583B0CB
:100B000000AF78607B684FF00004094AC2E9003406
:100B100001214FF0804001F0D1FD00BF044BD3E92B
:100B200000342343FAD100BF0C37BD4690BD00BF4F
:100B30002000002090B583B000AF78607B684FF450
:100B40007A7202FB03F34FF00004094AC2E9003451
:100B500001214FF0804001F0B1FD00BF044BD3E90B
:100B600000342343FAD100BF0C37BD4690BD00BF0F
:100B70002000002080B483B000AF786039607B68CB
:100B800001333A6802FB03F3044A92FBF3F3013B9F
:100B900018460C37BD4680BC704700BF00BD01053C
:100BA00080B586B000AF01210120FFF76BFF154B28
:100BB0007B6101233B613B69BB60786902F072FD98
:100BC000034619463869FFF7D5FF03469BB2BB8041
:100BD0000023BB810023FB803B1D19464FF0804062
:100BE00001F0F4FC01214FF0804002F037F80122BF
:100BF00001214FF0804001F0E3FF00BF1837BD46F0
:100C000080BD00BF0024744980B586B000AF0121CB
:100C10000220FFF737FF144B7B6140F247333B6103
:100C20003B69BB60786902F03DFD034619463869AF
:100C3000FFF7A0FF03469BB2BB800023BB810023CC
:100C4000FB803B1D1946094801F0C0FC0121074803
:100C500002F004F801220121044801F0B1FF00BFB5
:100C60001837BD4680BD00BF0050C3470004004098
:100C700080B586B000AF01210420FFF703FF4CF2DE
:100C800050337B6140F247333B613B69BB6079691C
:100C90003869FFF76FFF03469BB2BB800023BB811F
:100CA0000023FB803B1D1946034801F08FFC00BF69
:100CB0001837BD4680BD00BF0008004080B586B033
:100CC00000AF6023BB800123FB800023FB60002377
:100CD0003B823B1D1946134801F010FD08211148C5
:100CE00001F0FAFE3B1D19460E4801F081FD082176
:100CF0000C4801F00DFF3B1D19460A4801F000FEAB
:100D00000821084801F022FF3B1D1946054801F063
:100D10007DFE0821034801F035FF00BF1837BD46AE
:100D200080BD00BF0008004080B500AFFFF7A0FF06
:100D3000FFF7C4FF00BF80BD80B586B000AF0121C2
:100D40000820FFF79FFE10237B6142F20F733B6187
:100D50003B69BB6079693869FFF70CFF03469BB2BA
:100D6000BB800023BB810023FB803B1D1946084844
:100D700001F02CFC0121064801F070FF0122012145
:100D8000034801F01DFF00BF1837BD4680BD00BFFE
:100D9000000C004080B586B000AF01212020FFF795
:100DA00071FE174B7B6146F2A7133B611323FB6077
:100DB0003B697B60FB689BB23B8000233B81002347
:100DC0007B803B4619460F4801F000FC01210D488D
:100DD00001F044FF012201210A4801F0F1FE3B69C4
:100DE0000133FA68013202FB03F3074A92FBF3F383
:100DF0001A46064B1A6000BF1837BD4680BD00BFBB
:100E000000002A430014004000BD01053800002006
:100E100080B500AFFFF7C4FEFFF7F6FEFFF784FFD3
:100E2000FFF78AFFFFF7B6FF00BF80BD80B485B033
:100E300000AF786039600023FB600023FB727B68A1
:100E40005B68FB60FB6823F0407323F48073FB60F6
:100E50003B681B791A023B681B681343FA6813430B
:100E6000FB607B68FA685A607B689B68FB60FA6885
:100E7000174B1340FB603B681A693B68DB681A43F9
:100E80003B689B681A433B685B795B001343FA68D5
:100E90001343FB607B68FA689A607B68DB6AFB60DF
:100EA000FB6823F47003FB603B681B7D013BDAB2F7
:100EB000FB7A1343FB72FB7A1B05FA681343FB6052
:100EC0007B68FA68DA6200BF1437BD4680BC7047A1
:100ED000FDF7FFC080B485B000AF78600023FB60F1
:100EE0000E4B5B68FB60FA680D4B1340FB607B6840
:100EF0001A687B685B681A437B689B681A437B6847
:100F0000DB681343FA681343FB60044AFB685360D1
:100F100000BF1437BD4680BC704700BF00230140AE
:100F2000E030FCFF80B483B000AF78600B46FB700C
:100F3000FB78002B06D07B689B6843F001027B683E
:100F40009A6005E07B689B6823F001027B689A60E9
:100F500000BF0C37BD4680BC704700BF80B485B071
:100F600000AF7860084611461A460346FB700B46F0
:100F7000BB7013467B700023FB600023BB60FB78D3
:100F8000092B23D97B68DB68FB60FB78A3F10A029D
:100F900013465B001344072202FA03F3BB60BB68ED
:100FA000DB43FA681340FB607978FB78A3F10A020F
:100FB00013465B00134401FA03F3BB60FA68BB6895
:100FC0001343FB607B68FA68DA601EE07B681B698C
:100FD000FB60FA7813465B001344072202FA03F31E
:100FE000BB60BB68DB43FA681340FB607978FA7832
:100FF00013465B00134401FA03F3BB60FA68BB6855
:101000001343FB607B68FA681A61BB78062B21D812
:101010007B685B6BFB60BB785A1E13469B001344D6
:101020001F2202FA03F3BB60BB68DB43FA6813407C
:10103000FB60F978BB785A1E13469B00134401FAF3
:1010400003F3BB60FA68BB681343FB607B68FA6814
:101050005A6347E0BB780C2B21D87B681B6BFB6085
:10106000BB78DA1F13469B0013441F2202FA03F3D6
:10107000BB60BB68DB43FA681340FB60F978BB7860
:10108000DA1F13469B00134401FA03F3BB60FA68AE
:10109000BB681343FB607B68FA681A6322E07B68D5
:1010A000DB6AFB60BB78A3F10D0213469B0013447F
:1010B0001F2202FA03F3BB60BB68DB43FA681340EC
:1010C000FB60F978BB78A3F10D0213469B00134433
:1010D00001FA03F3BB60FA68BB681343FB607B68EB
:1010E000FA68DA6200BF1437BD4680BC704700BFA3
:1010F00080B483B000AF78607B689B6843F0804227
:101100007B689A6000BF0C37BD4680BC704700BF4B
:1011100080B483B000AF78607B68DB6C9BB218460C
:101120000C37BD4680BC704780B485B000AF786096
:101130000B46FB700023FB737B681A68FB78134037
:10114000002B02D00123FB7301E00023FB73FB7B28
:1011500018461437BD4680BC704700BF80B582B0CA
:1011600000AF786039603968786802F091FA034618
:10117000002B02D04FF07E5301E04FF04043184661
:101180000837BD4680BD00BF98B500AF2B4B1B781C
:101190001A462B4B1A602B4B1B682B49184602F042
:1011A00059FA0346002B44D0264B1B6827491846A2
:1011B00002F050FA0346002B1AD0204B01221A707D
:1011C000234BDB6A184602F04FF804461D4B1B68A0
:1011D00019461D4801F096FF03461B49184602F0C8
:1011E0004FF903461946204602F096F8034623E0DD
:1011F000124B00221A70164BDB6A184602F034F8C4
:101200000446104B1B6819460F4801F07BFF03464C
:101210000D49184602F034F903461946204602F0FB
:101220007BF803464FF07C51184602F075F80346F0
:1012300002E0024B00221A70184698BDD40000202C
:10124000D80000201C0000209A99993E8FC2F53DDD
:101250000008004098B500AF284B1B78002B1ED02B
:10126000274B1A68274B1B6819461046FFF776FF75
:101270000346184602F016FA0246234B1A60234B27
:10128000DB6A214A126802FB03F31A46204B1A60FC
:101290001F4B1B68184601F0EBFF03462CE0194B6F
:1012A0001B6819461B4801F02DFF03464FF0000153
:1012B000184602F0EDF90346002B1DD0134BDB6AF4
:1012C000184601F0D1FF04460E4B1B681946114821
:1012D00001F018FF03460F49184602F0D1F8034603
:1012E0001946204602F018F803464FF07C51184684
:1012F00002F012F80346FFE7184698BDD40000201C
:10130000080000200C000020E00000200008004041
:10131000E80000209A99993E98B500AFFFF734FF96
:101320000446FFF797FF03461946204601F0ECFEFE
:101330000346184698BD00BF98B500AF284B1B78F0
:10134000002B1ED0274B1A68274B1B6819461046E6
:10135000FFF704FF0346184602F0A4F90246234BA8
:101360001A60234BDB6A214A126802FB03F31A4618
:10137000204B1A601F4B1B68184601F079FF03468B
:101380002CE0194B1B6819461B4801F0BBFE0346B5
:101390004FF00001184602F07BF90346002B1DD0E8
:1013A000134BDB6A184601F05FFF04460E4B1B68C7
:1013B0001946114801F0A6FE03460F49184602F0EF
:1013C0005FF803461946204601F0A6FF03464FF09A
:1013D0007C51184601F0A0FF0346FFE7184698BD70
:1013E000D40000200C00002008000020E4000020B1
:1013F00000080040D00000209A99993E98B500AFAF
:10140000FFF7C2FE0446FFF797FF03461946204642
:1014100001F07AFE0346184698BD00BF80B586B03D
:1014200000AF01214FF48040FFF72CFB0023BB806D
:1014300000233B8102237B810023BB814FF4007397
:10144000FB8138233B8280237B820723BB824FF4BE
:101450008273FB803B1D1946054800F007FF012100
:10146000034800F047FF00BF1837BD4680BD00BFEE
:101470000038004080B400AF184B1B789AB2184B6C
:101480001A80164B5B789AB2164B1A80134B9B78D6
:101490009AB2154B1A80114BDB789AB2134B1A8013
:1014A0000E4B1B799AB2124B1A800C4B5B799AB295
:1014B000104B1A80094B9B799AB20F4B1A80074B3D
:1014C000DB799AB20D4B1A80044B1B7A9AB20C4B03
:1014D0001A8000BFBD4680BC704700BFA00000203E
:1014E000780000207000002094000020960000206A
:1014F0006C000020B00000207A0000208200002054
:101500009800002080B584B000AF0346FB71FB79E2
:101510009BB219460F4800F019FF00BF02210D4889
:1015200000F022FF0346002BF8D000BF012109483C
:1015300000F01AFF0346002BF8D01420FFF7DEFA64
:10154000044800F0F7FE0346FB73FB7B1846103798
:10155000BD4680BD0038004090B585B000AF7860D2
:1015600039604FF40061144800F07EFA0023FB60FC
:1015700010E07A68FB68D4187A68FB6813441B781B
:101580001846FFF7BFFF03462370FFF773FFFB68A2
:101590000133FB60FA683B689A42EAD3FFF76AFFBF
:1015A0004FF40061044800F051FA3220FFF7A6FA28
:1015B00000BF1437BD4690BD0010024080B500AF9B
:1015C000114B01221A70104B42225A700E4B00220E
:1015D0009A700D4B0022DA700B4B00221A710A4BE5
:1015E00000225A71084B00229A71074B0022DA71CF
:1015F000054B00221A7209210348FFF7ADFF322084
:10160000FFF798FA00BF80BDA000002080B500AFB2
:10161000104B01221A700F4B44225A700D4B0022BE
:101620009A700C4B0122DA700A4B03221A71094B93
:1016300000225A71074B00229A71064B0022DA7180
:10164000044B00221A7209210248FFF785FF00BFF0
:1016500080BD00BFA000002080B500AF0A4B012272
:101660001A70094B43225A70074B00229A70064B9E
:101670000122DA70044B00221A7105210248FFF79B
:101680006BFF00BF80BD00BFA000002080B500AF91
:10169000104B01221A700F4B43225A700D4B00223F
:1016A0009A700C4B0022DA700A4B5A221A71094BBD
:1016B0005A225A71074B5A229A71064B5A22DA71F2
:1016C000044B5A221A7209210248FFF745FF00BF56
:1016D00080BD00BFA000002080B500AFFFF7BCFFB9
:1016E000FFF794FFFFF7D2FFFFF768FF034B044AB1
:1016F0001A60044B01221A7000BF80BDC000002098
:101700003333333F6000002080B485B000AF034620
:101710000A46FB711346BB710123FB600023BB60CB
:1017200005E0FB685B00FB60BB680133BB60BA7916
:10173000BB689A42F5DCFB79074AD35C1A46FB6822
:101740001340002B01D1012300E000231846143779
:10175000BD4680BC704700BFA000002080B500AF30
:1017600001210420FFF7D0FF0346002B04D0054BD6
:101770004FF07E521A6002E0024B034A1A6000BF2B
:1017800080BD00BFC00000203333333F80B500AFC1
:1017900003210320FFF7B8FF0346002B19D0164B97
:1017A0001B78002B1BD0154B1B78002B06D0134B3E
:1017B00000221A70124B00229A6306E00F4B01229E
:1017C0001A700F4A0E4BDB6A93630B4B00221A70A0
:1017D00005E00C4B00221A70074B01221A70064BD1
:1017E0001B781A46084B1A60044B1B781A46074BA5
:1017F0001A6000BF80BD00BF8C0000208000002068
:10180000000800406E000020AC0000208400002092
:1018100080B500AF00210320FFF776FF0346002BC1
:101820001DD0164B1B78002B1CD0154B1B78002BA2
:1018300006D0134B00221A70124B00221A640AE0E1
:101840000F4B01221A7001210F4800F037FF0D4A9B
:101850000C4BDB6A1364094B00221A7002E0074B41
:1018600001221A70064B1B781A46084B1A60034B6C
:101870001B781A46064B1A6000BF80BD5800002036
:101880004C00002000080040000C004050000020E8
:101890005400002080B500AFFFF760FFFFF776FF30
:1018A000FFF7B6FF094B1B78002B08D0084B1B68CD
:1018B000002B04D000F074FC00F06EFB03E000F09D
:1018C000B7FA00F0B5FB00BF80BD00BF800000206C
:1018D0006800002080B500AF074B1B7883F0010340
:1018E000DBB2002B01D0FFF7F7FEFFF767FEFFF733
:1018F000D1FF00BF184680BD6000002080B487B0D3
:1019000000AF7860396000237B6100233B610023D6
:10191000FB6000237B6176E001227B6902FA03F31E
:101920003B613B681A683B691340FB60FA683B699E
:101930009A4265D17B681A687B695B00032101FAD2
:1019400003F3DB431A407B681A607B681A683B68C4
:101950001B7919467B695B0001FA03F31A437B6824
:101960001A603B681B79012B03D03B681B79022B63
:101970002ED17B689A687B695B00032101FA03F32F
:10198000DB431A407B689A607B689A683B685B79A6
:1019900019467B695B0001FA03F31A437B689A607E
:1019A0007B685A687B699BB2194601238B40DB43F5
:1019B0001A407B685A607B685B683A689279114686
:1019C0007A6992B201FA02F292B21A437B685A60C3
:1019D0007B68DA687B699BB25B00032101FA03F341
:1019E000DB431A407B68DA607B68DA683B68DB7946
:1019F00019467B695B0001FA03F31A437B68DA60DE
:101A00007B6901337B617B690F2B85D900BF1C3754
:101A1000BD4680BC704700BF80B485B000AF786021
:101A20000B467B800023FB737B681A697B8813401D
:101A3000002B02D00123FB7301E00023FB73FB7B2F
:101A400018461437BD4680BC704700BF80B483B0D1
:101A500000AF78600B467B807B687A881A8300BF72
:101A60000C37BD4680BC704780B483B000AF78604F
:101A70000B467B807B687A885A8300BF0C37BD4653
:101A800080BC704780B485B000AF78600B467B8027
:101A900013467B700023FB600023BB607A787B8851
:101AA00003F007039B0002FA03F3FB607B88DB086B
:101AB0009BB218467B88DB089BB21A467B680832CB
:101AC00053F822207B8803F007039B000F2101FAC3
:101AD00003F3DB4302EA03017B6800F1080243F8E9
:101AE00022107B88DB089BB21A467B68083253F8C9
:101AF0002220FB681343BB607B88DB089BB21A463D
:101B00007B680832B96843F8221000BF1437BD461D
:101B100080BC70470000000090B585B000AFF86051
:101B2000B9603B601346FB807B6A1B7883F001033E
:101B3000DBB2002B5ED0FB881946B868FFF76CFF5C
:101B40000346002B05D0304B5B6A1A463B681A608F
:101B500050E02D4B5B6A1A463B6A1A603B6A1A6872
:101B60003B681B68D31A002B41DD3B6A1A683B684F
:101B70001B68D31A184601F07BFB0446224BDB6A34
:101B80000133184601F070FB03461946204601F068
:101B900077FC03461C461D4B1B68184601F064FB8E
:101BA00003461946204601F06BFC034618491846C7
:101BB00001F0B2FB03461A46164B1A60154B1B6820
:101BC000184601F0BFF90EA3D3E9002301F06EFA25
:101BD0000346002B04D0B96AF86800F01DF803E052
:101BE0000C4B1A68FB681A60BB6A00221A807B6A79
:101BF00001221A7000BF1437BD4690BDAFF30080BC
:101C00009A9999999999A93F0014004038000020A9
:101C100000002A43EC00002080B483B000AF78605D
:101C200039603B681B88042B03D97B68064A1A601D
:101C300005E03B681B8801339AB23B681A8000BFFD
:101C40000C37BD4680BC7047CDCC4C3D80B483B0D2
:101C500000AF786039603B681B88082B04D97B682B
:101C60004FF07E521A6005E03B681B8801339AB240
:101C70003B681A8000BF0C37BD4680BC704700BF70
:101C800080B500AF124A124B1B6843F0010313608A
:101C90000F4B00229A600E4A0D4B1B6823F0847391
:101CA00023F4803313600A4B0A4A5A60084A084BEF
:101CB0001B6823F480231360054B0022DA6000F0D8
:101CC0000DF8054B4FF000629A6000BF80BD00BF69
:101CD000003802401030002400ED00E080B483B0F2
:101CE00000AF00237B6000233B60354A344B1B6808
:101CF00043F480331360324B1B6803F400333B60C2
:101D00007B6801337B603B68002B03D17B68B3F5B4
:101D1000A06FF0D12A4B1B6803F40033002B02D0D4
:101D200001233B6001E000233B603B68012B42D173
:101D3000234A234B1B6C43F080531364214A214BED
:101D40001B6843F4804313601D4A1D4B9B689360DE
:101D50001B4A1B4B9B6843F400439360184A184B83
:101D60009B6843F4A0539360154B174A5A60144A7A
:101D7000134B1B6843F08073136000BF104B1B684C
:101D800003F00073002BF9D0104B40F205621A608B
:101D90000B4A0B4B9B6823F003039360084A084BE4
:101DA0009B6843F00203936000BF054B9B6803F000
:101DB0000C03082BF9D100BF0C37BD4680BC70471F
:101DC000003802400070004008544007003C0240C8
:101DD00080B582B000AF03460A46FB711346BB7163
:101DE000FB79002B04D004210E48FFF72FFE03E0FF
:101DF00004210C48FFF738FEBB79002B04D00821E2
:101E00000848FFF723FE03E008210648FFF72CFEF1
:101E1000FB79054A1360BB79044A136000BF083799
:101E2000BD4680BD00100240740000207C000020F0
:101E300080B500AF0021002000F06AF800BF80BD2F
:101E400098B500AF134BDB6A184601F00DFA024655
:101E5000114B1B681946104601F05EFA03461C46FA
:101E60000E4B1B7AC3F17F03184601F001FA0346BB
:101E70001946204601F050FA03460949184601F078
:101E8000FFFA0346184601F00DFC0246054B1A60A6
:101E900000BF98BD00080040C0000020A000002046
:101EA0000000FE428800002098B500AF144BDB6AAA
:101EB000184601F0D9F90246124B1B681946104624
:101EC00001F02AFA03461C460F4B1B7A7F3B18464B
:101ED00001F0CEF903461946204601F01DFA0346EB
:101EE0004FF08641184601F0CBFA034683F00043D9
:101EF000184601F0D7FB0246044B1A6000BF98BD9C
:101F000000080040C0000020A00000208800002041
:101F100080B584B000AF786039603A687B68D31AC6
:101F2000FB60FB68002B04DD00210120FFF750FF60
:101F30000EE0FB68002B07DAFB685B42FB600121C7
:101F40000020FFF745FF03E000210020FFF740FFDE
:101F5000034AFB68D36300BF1037BD4680BD00BF96
:101F60000008004080B500AF094B1B7A7E2B02D8D9
:101F7000FFF766FF0AE0064B1B7A5BB2002B02DA22
:101F8000FFF792FF02E0034B00221A6000BF80BD02
:101F9000A00000208800002080B500AFFFF7E2FF1E
:101FA000FFF7BAF90346184601F07CFB0246064BE0
:101FB0001A60054B1A68054B1B6819461046FFF757
:101FC000A7FF00BF80BD00BFCC000020880000201C
:101FD00080B582B000AF03460A46FB711346BB7161
:101FE000FB79002B04D001210E48FFF72FFD03E001
:101FF00001210C48FFF738FDBB79002B04D00221EA
:102000000848FFF723FD03E002210648FFF72CFDF7
:10201000FB79054A1360BB79044A136000BF083797
:10202000BD4680BD001002409C0000205C000020E6
:1020300080B500AF0021002000F06AF800BF80BD2D
:1020400098B500AF134BDB6A184601F00DF9024654
:10205000114B1B681946104601F05EF903461C46F9
:102060000E4B9B79C3F17F03184601F001F903463B
:102070001946204601F050F903460949184601F077
:10208000FFF90346184601F00DFB0246054B1A60A6
:1020900000BF98BD00080040C0000020A000002044
:1020A0000000FE42B800002098B500AF144BDB6A78
:1020B000184601F0D9F80246124B1B681946104623
:1020C00001F02AF903461C460F4B9B797F3B1846CB
:1020D00001F0CEF803461946204601F01DF90346EB
:1020E0004FF08641184601F0CBF9034683F00043D8
:1020F000184601F0D7FA0246044B1A6000BF98BD9B
:1021000000080040C0000020A0000020B80000200F
:1021100080B584B000AF78603960124A7B68136084
:102120003A687B68D31AFB60FB68002B04DD002152
:102130000120FFF74DFF0EE0FB68002B07DAFB687C
:102140005B42FB6001210020FFF742FF03E000211A
:102150000020FFF73DFF044AFB68536300BF1037C0
:10216000BD4680BDF00000200008004080B500AFF3
:10217000094B9B797E2B02D8FFF762FF0AE0064BE2
:102180009B795BB2002B02DAFFF78EFF02E0034B74
:1021900000221A6000BF80BDA0000020B80000200F
:1021A00080B500AFFFF7E2FFFFF728F903461846B6
:1021B00001F078FA0246064B1A60054B1A68054B87
:1021C0001B6819461046FFF7A3FF00BF80BD00BF84
:1021D00064000020B800002080B584B000AF002368
:1021E0003B6000237B600023BB600023FB603B4619
:1021F0001846FEF76FFE00BF1037BD4680BD00BF1A
:1022000080B586B000AF01214FF48070FEF758FC16
:1022100000233B6000233B7101237B710023FB60A3
:102220000023BB6000233B6101233B753B461946FD
:102230000648FEF7FBFD0423012201210348FEF7B7
:102240008DFE00BF1837BD4680BD00BF0020014095
:1022500080B500AFFFF7C0FFFFF7D2FF01210248B2
:10226000FEF760FE00BF80BD0020014080B485B055
:1022700000AF786039600023FB817B681B88FB819D
:10228000FB8903F44153FB813B681A883B685B88F8
:1022900013439AB23B689B8813439AB23B68DB882E
:1022A00013439AB23B681B8913439AB23B685B891C
:1022B00013439AB23B689B8913439AB23B68DB890C
:1022C00013439AB2FB891343FB817B68FA891A8016
:1022D0007B689B8B9BB223F400639AB27B689A83E2
:1022E0003B681A8A7B681A8200BF1437BD4680BCDF
:1022F000704700BF80B483B000AF78600B46FB70BE
:10230000FB78002B08D07B681B889BB243F040030E
:102310009AB27B681A8007E07B681B889BB223F027
:1023200040039AB27B681A8000BF0C37BD4680BC60
:10233000704700BF80B483B000AF78607B689B8932
:102340009BB218460C37BD4680BC704780B483B042
:1023500000AF78600B467B807B687A889A8100BFEB
:102360000C37BD4680BC704780B485B000AF786044
:102370000B467B800023FB737B681B899AB27B88AA
:1023800013409BB2002B02D00123FB7301E000231A
:10239000FB73FB7B18461437BD4680BC704700BFFB
:1023A00080B485B000AF78600023FB60344BFB60E5
:1023B0007B689B79002B4FD03149314B1A687B6881
:1023C0001B68DB4313400B602D492D4B5A687B681B
:1023D0001B68DB4313404B607B681B791A46FB6824
:1023E0001344FB60FB68FA6811687A6812680A4354
:1023F0001A602349224B9A687B681B68DB431340B1
:102400008B601F491E4BDA687B681B68DB431340F7
:10241000CB607B685B79102B0ED11949184B9A68F9
:102420007B681B6813438B601549154BDA687B6822
:102430001B681343CB601DE0114BFB607B685B792D
:102440001A46FB681344FB60FB68FA6811687A68F7
:1024500012680A431A600DE07B681B791A46FB6814
:102460001344FB60FB68FA6811687A681268D2430B
:102470000A401A6000BF1437BD4680BC704700BFD9
:10248000003C014080B485B000AF78600023FB734E
:102490000023BB600C4B1A687B681340BB600A4B7F
:1024A0005A697B681340002B05D0BB68002B02D013
:1024B0000123FB7301E00023FB73FB7B18461437F9
:1024C000BD4680BC704700BF003C014080B483B073
:1024D00000AF7860034A7B68536100BF0C37BD468C
:1024E00080BC7047003C014080B483B000AF78608E
:1024F000054A7B6843F0BF6343F40033D36000BFF9
:102500000C37BD4680BC704700ED00E080B485B05C
:1025100000AF78600023FB730023BB730F237B7332
:102520007B68DB78002B38D0264BDB68DB4303F479
:10253000E0631B0AFB73FB7BC3F10403BB737A7B71
:10254000FB7B42FA03F37B737B685B781A46BB7BA9
:1025500002FA03F3FB737B689A787B7B1340DAB251
:10256000FB7B1343FB73FB7B1B01FB73164A7B68EE
:102570001B781344FA7B83F80023134A7B681B788B
:102580005B09DBB218467B681B7803F01F0301214F
:1025900001FA03F342F820300FE00B497B681B7807
:1025A0005B09DBB218467B681B7803F01F0301222E
:1025B0009A4000F1200341F8232000BF1437BD46A4
:1025C00080BC704700ED00E000E100E080B485B021
:1025D00000AF786039600023FB817B681B88FB813A
:1025E0007B68284A934213D07B68274A93420FD0D6
:1025F0007B68B3F1804F0BD07B68244A934207D0AD
:102600007B68234A934203D07B68224A934208D1D5
:10261000FB8923F07003FB813B685A88FB891343D5
:10262000FB817B681C4A93420CD07B681B4A934217
:1026300008D0FB8923F44073FB813B681A89FB892E
:102640001343FB817B68FA891A803B685A687B6870
:10265000DA623B681A887B681A857B68094A93426C
:1026600003D07B68084A934204D13B689B7A9AB2B4
:102670007B681A867B6801229A8200BF1437BD46A8
:1026800080BC70470000014000040140000400408D
:1026900000080040000C0040001000400014004002
:1026A00080B483B000AF786039607B683A685A6262
:1026B00000BF0C37BD4680BC704700BF80B483B0FC
:1026C00000AF78600B46FB70FB78002B08D07B686E
:1026D0001B889BB243F001039AB27B681A8007E023
:1026E0007B681B889BB223F001039AB27B681A8037
:1026F00000BF0C37BD4680BC704700BF80B485B0BA
:1027000000AF7860396000237B810023FB810023C8
:10271000BB817B681B8C9BB223F001039AB27B6860
:102720001A847B681B8CFB817B689B88BB817B68E0
:102730001B8B7B817B8923F070037B817B8923F05A
:1027400003037B813B681A887B8913437B81FB8968
:1027500023F00203FB813B689A89FB891343FB81C9
:102760003B685A88FB891343FB817B681E4A93426E
:1027700003D07B681D4A934223D1FB8923F00803D1
:10278000FB813B68DA89FB891343FB81FB8923F0DA
:102790000403FB813B689A88FB891343FB81BB8957
:1027A00023F48073BB81BB8923F40073BB813B6836
:1027B0001A8ABB891343BB813B685A8ABB8913437E
:1027C000BB817B68BA899A807B687A891A833B6867
:1027D0009A687B685A637B68FA891A8400BF143749
:1027E000BD4680BC704700BF0000014000040140AE
:1027F00080B485B000AF7860396000237B8100230E
:10280000FB810023BB817B681B8C9BB223F01003F0
:102810009AB27B681A847B681B8CFB817B689B88DF
:10282000BB817B681B8B7B817B8923F4E0437B81AD
:102830007B8923F440737B813B681B881B029AB21F
:102840007B8913437B81FB8923F02003FB813B6859
:102850009B891B019AB2FB891343FB813B685B8810
:102860001B019AB2FB891343FB817B68224A934286
:1028700003D07B68214A93422BD1FB8923F080034C
:10288000FB813B68DB891B019AB2FB891343FB8107
:10289000FB8923F04003FB813B689B881B019AB2B4
:1028A000FB891343FB81BB8923F48063BB81BB8914
:1028B00023F40063BB813B681B8A9B009AB2BB89EF
:1028C0001343BB813B685B8A9B009AB2BB8913436D
:1028D000BB817B68BA899A807B687A891A833B6856
:1028E0009A687B689A637B68FA891A8400BF1437F8
:1028F000BD4680BC704700BF00000140000401409D
:1029000080B485B000AF7860396000237B810023FC
:10291000FB810023BB817B681B8C9BB223F48073FB
:102920009AB27B681A847B681B8CFB817B689B88CE
:10293000BB817B689B8B7B817B8923F070037B81D0
:102940007B8923F003037B813B681A887B891343CF
:102950007B81FB8923F40073FB813B689B891B020D
:102960009AB2FB891343FB813B685B881B029AB2D6
:10297000FB891343FB817B68224A934203D07B6827
:10298000214A93422BD1FB8923F40063FB813B68EE
:10299000DB891B029AB2FB891343FB81FB8923F479
:1029A0008063FB813B689B881B029AB2FB891343BF
:1029B000FB81BB8923F48053BB81BB8923F4005383
:1029C000BB813B681B8A1B019AB2BB891343BB8145
:1029D0003B685B8A1B019AB2BB891343BB817B684E
:1029E000BA899A807B687A899A833B689A687B68FF
:1029F000DA637B68FA891A8400BF1437BD4680BC4D
:102A0000704700BF000001400004014080B485B061
:102A100000AF786039600023BB8100237B810023F5
:102A2000FB817B681B8C9BB223F480539AB27B683A
:102A30001A847B681B8C7B817B689B88FB817B680D
:102A40009B8BBB81BB8923F4E043BB81BB8923F40F
:102A50004073BB813B681B881B029AB2BB8913433E
:102A6000BB817B8923F400537B813B689B891B03DB
:102A70009AB27B8913437B813B685B881B039AB2C4
:102A80007B8913437B817B68114A934203D07B6827
:102A9000104A93420AD1FB8923F48043FB813B68AF
:102AA0001B8A9B019AB2FB891343FB817B68FA89DD
:102AB0009A807B68BA899A833B689A687B681A64B3
:102AC0007B687A891A8400BF1437BD4680BC704782
:102AD000000001400004014080B485B000AF786080
:102AE0000B467B800023FB817B681B8BFB81FB8972
:102AF00023F00803FB81FA897B881343FB817B6801
:102B0000FA891A8300BF1437BD4680BC704700BFE6
:102B100080B485B000AF78600B467B800023FB81DA
:102B20007B681B8BFB81FB8923F40063FB817B8823
:102B30001B029AB2FB891343FB817B68FA891A83D3
:102B400000BF1437BD4680BC704700BF80B485B05D
:102B500000AF78600B467B800023FB817B689B8BFA
:102B6000FB81FB8923F00803FB81FA897B881343EF
:102B7000FB817B68FA899A8300BF1437BD4680BC0D
:102B8000704700BF80B485B000AF78600B467B8093
:102B90000023FB817B689B8BFB81FB8923F4006313
:102BA000FB817B881B029AB2FB891343FB817B6804
:102BB000FA899A8300BF1437BD4680BC704700BFB6
:102BC00080B483B000AF78600B467B8013467B7087
:102BD0007B78002B08D07B689B899AB27B88134353
:102BE0009AB27B689A8109E07B689B899AB27B885C
:102BF000DB439BB213409AB27B689A8100BF0C37CB
:102C0000BD4680BC704700BF80B485B000AF78601F
:102C10000B467B800023FB730023BB8100237B8159
:102C20007B681B8A9AB27B881340BB817B689B8937
:102C30009AB27B8813407B81BB89002B05D07B89AE
:102C4000002B02D00123FB7301E00023FB73FB7B0D
:102C500018461437BD4680BC704700BF80B483B0AF
:102C600000AF78600B467B807B88DB439AB27B6841
:102C70001A8200BF0C37BD4680BC704781F000410E
:102C800002E000BF83F0004330B54FEA41044FEA51
:102C9000430594EA050F08BF90EA020F1FBF54EAEC
:102CA000000C55EA020C7FEA645C7FEA655C00F088
:102CB000E2804FEA5454D4EB5555B8BF6D420CDD59
:102CC0002C4480EA020281EA030382EA000083EADC
:102CD000010180EA020281EA0303362D88BF30BD7C
:102CE00011F0004F4FEA01314FF4801C4CEA1131D2
:102CF00002D0404261EB410113F0004F4FEA033331
:102D00004CEA133302D0524263EB430394EA050FBB
:102D100000F0A780A4F10104D5F1200E0DDB02FA2A
:102D20000EFC22FA05F2801841F1000103FA0EF2BE
:102D3000801843FA05F359410EE0A5F120050EF184
:102D4000200E012A03FA0EFC28BF4CF0020C43FAB5
:102D500005F3C01851EBE37101F0004507D54FF0C2
:102D6000000EDCF1000C7EEB00006EEB0101B1F512
:102D7000801F1BD3B1F5001F0CD349085FEA300058
:102D80004FEA3C0C04F101044FEA445212F5800F63
:102D900080F09A80BCF1004F08BF5FEA500C50F100
:102DA000000041EB045141EA050130BD5FEA4C0CE3
:102DB000404141EB010111F4801FA4F10104E9D16C
:102DC00091F0000F04BF01460020B1FA81F308BF63
:102DD0002033A3F10B03B3F120020CDA0C3208DD2F
:102DE00002F1140CC2F10C0201FA0CF021FA02F10A
:102DF0000CE002F11402D8BFC2F1200C01FA02F17A
:102E000020FA0CFCDCBF41EA0C019040E41AA2BF9E
:102E100001EB0451294330BD6FEA04041F3C1CDA66
:102E20000C340EDC04F11404C4F1200220FA04F086
:102E300001FA02F340EA030021FA04F345EA030130
:102E400030BDC4F10C04C4F1200220FA02F001FAF2
:102E500004F340EA0300294630BD21FA04F0294674
:102E600030BD94F0000F83F4801306BF81F480110D
:102E70000134013D4EE77FEA645C18BF7FEA655C80
:102E800029D094EA050F08BF90EA020F05D054EA52
:102E9000000C04BF1946104630BD91EA030F1EBF57
:102EA0000021002030BD5FEA545C05D1400049415B
:102EB00028BF41F0004130BD14F580043CBF01F54E
:102EC000801130BD01F0004545F0FE4141F4700134
:102ED0004FF0000030BD7FEA645C1ABF194610460F
:102EE0007FEA655C1CBF0B46024650EA013406BF10
:102EF00052EA033591EA030F41F4002130BD00BFCF
:102F000090F0000F04BF0021704730B54FF480648B
:102F100004F132044FF000054FF0000150E700BF0C
:102F200090F0000F04BF0021704730B54FF480646B
:102F300004F1320410F0004548BF40424FF0000158
:102F40003EE700BF42004FEAE2014FEA31014FEA9B
:102F500002701FBF12F07F4393F07F4F81F06051EA
:102F6000704792F0000F14BF93F07F4F704730B559
:102F70004FF4607401F0004521F0004120E700BFEC
:102F800050EA010208BF704730B54FF000050AE073
:102F900050EA010208BF704730B511F0004502D574
:102FA000404261EB41014FF4806404F132045FEA76
:102FB000915C3FF4DCAE4FF003025FEADC0C18BF1B
:102FC00003325FEADC0C18BF033202EBDC02C2F111
:102FD000200300FA03FC20FA02F001FA03FE40EAA3
:102FE0000E0021FA02F11444C1E600BF4FF0FF3C8D
:102FF00006E000BF4FF0010C02E000BF4FF0010CF3
:103000004DF804CD4FEA410C7FEA6C5C4FEA430C6B
:1030100018BF7FEA6C5C1BD001B050EA410C0CBFBA
:1030200052EA430C91EA030F02BF90EA020F00201C
:10303000704710F1000F91EA030F58BF994208BF83
:1030400090422CBFD8176FEAE37040F00100704740
:103050004FEA410C7FEA6C5C02D150EA013C07D197
:103060004FEA430C7FEA6C5CD6D152EA033CD3D0E2
:103070005DF8040B704700BF8446104662468C46DC
:103080001946634600E000BF01B5FFF7B7FF00280F
:1030900048BF10F1000F01BD4DF808EDFFF7F4FF38
:1030A0000CBF012000205DF808FB00BF4DF808EDC3
:1030B000FFF7EAFF34BF012000205DF808FB00BFE6
:1030C0004DF808EDFFF7E0FF94BF012000205DF808
:1030D00008FB00BF4DF808EDFFF7CEFF94BF0120BD
:1030E00000205DF808FB00BF4DF808EDFFF7C4FFB6
:1030F00034BF012000205DF808FB00BF80F00040D5
:1031000002E000BF81F0004142001FBF5FEA4103BF
:1031100092EA030F7FEA226C7FEA236C6AD04FEABF
:103120001262D2EB1363C1BFD21841404840414004
:10313000B8BF5B42192B88BF704710F0004F40F4B6
:10314000000020F07F4018BF404211F0004F41F4D2
:10315000000121F07F4118BF494292EA030F3FD09E
:10316000A2F1010241FA03FC10EB0C00C3F12003B1
:1031700001FA03F100F0004302D5494260EB400040
:10318000B0F5000F13D3B0F1807F06D340084FEAAB
:10319000310102F10102FE2A51D2B1F1004F40EBA0
:1031A000C25008BF20F0010040EA03007047490008
:1031B00040EB000010F4000FA2F10102EDD1B0FAD3
:1031C00080FCACF1080CB2EB0C0200FA0CF0AABFC8
:1031D00000EBC25052421843BCBFD0401843704766
:1031E00092F0000F81F4000106BF80F4000001326C
:1031F000013BB5E74FEA41037FEA226C18BF7FEA43
:10320000236C21D092EA030F04D092F0000F08BF84
:103210000846704790EA010F1CBF0020704712F06B
:103220007F4F04D1400028BF40F00040704712F1AA
:1032300000723CBF00F50000704700F0004343F00F
:10324000FE4040F4000070477FEA226216BF084645
:103250007FEA23630146420206BF5FEA412390EA08
:10326000010F40F4800070474FF0000304E000BFFE
:1032700010F0004348BF40425FEA000C08BF7047AF
:1032800043F0964301464FF000001CE050EA010273
:1032900008BF70474FF000030AE000BF50EA010288
:1032A00008BF704711F0004302D5404261EB410175
:1032B0005FEA010C02BF84460146002043F0B6439A
:1032C00008BFA3F18053A3F50003BCFA8CF2083ABF
:1032D000A3EBC25310DB01FA02FC634400FA02FCC8
:1032E000C2F12002BCF1004F20FA02F243EB0200CF
:1032F00008BF20F00100704702F1200201FA02FC31
:10330000C2F1200250EA4C0021FA02F243EB020023
:1033100008BF20EADC7070474FF0FF0C1CEAD05267
:103320001EBF1CEAD15392EA0C0F93EA0C0F6FD028
:103330001A4480EA010C400218BF5FEA41211ED006
:103340004FF0006343EA501043EA5111A0FB0131F2
:103350000CF00040B1F5000F3EBF490041EAD371C7
:103360005B0040EA010062F17F02FD2A1DD8B3F143
:10337000004F40EBC25008BF20F00100704790F0B2
:10338000000F0CF0004C08BF49024CEA502040EA04
:1033900051207F3AC2BFD2F1FF0340EAC2507047CA
:1033A00040F400004FF00003013A5DDC12F1190F08
:1033B000DCBF00F000407047C2F10002410021FA7A
:1033C00002F1C2F1200200FA02FC5FEA310040F192
:1033D000000053EA4C0308BF20EADC70704792F00B
:1033E000000F00F0004C02BF400010F4000F013A43
:1033F000F9D040EA0C0093F0000F01F0004C02BF3E
:10340000490011F4000F013BF9D041EA0C018FE7AC
:103410000CEAD15392EA0C0F18BF93EA0C0F0AD0B2
:1034200030F0004C18BF31F0004CD8D180EA0100D8
:1034300000F00040704790F0000F17BF90F0004F71
:10344000084691F0000F91F0004F14D092EA0C0F53
:1034500001D142020FD193EA0C0F03D14B0218BFE6
:10346000084608D180EA010000F0004040F0FE402C
:1034700040F40000704740F0FE4040F440007047C8
:103480004FF0FF0C1CEAD0521EBF1CEAD15392EA47
:103490000C0F93EA0C0F69D0A2EB030280EA010C37
:1034A00049024FEA402037D04FF0805343EA1111D0
:1034B00043EA10130CF000408B4238BF5B0042F12E
:1034C0007D024FF4000C8B4224BF5B1A40EA0C00D3
:1034D000B3EB510F24BFA3EB510340EA5C00B3EB05
:1034E000910F24BFA3EB910340EA9C00B3EBD10FF3
:1034F00024BFA3EBD10340EADC001B0118BF5FEA45
:103500001C1CE0D1FD2A3FF650AF8B4240EBC2506D
:1035100008BF20F0010070470CF0004C4CEA50202E
:103520007F32C2BFD2F1FF0340EAC250704740F47D
:1035300000004FF00003013A37E792F0000F00F06F
:10354000004C02BF400010F4000F013AF9D040EAED
:103550000C0093F0000F01F0004C02BF490011F481
:10356000000F013BF9D041EA0C0195E70CEAD15379
:1035700092EA0C0F08D142027FF47DAF93EA0C0F60
:103580007FF470AF084676E793EA0C0F04D14B0244
:103590003FF44CAF08466EE730F0004C18BF31F0F6
:1035A000004CCAD130F000427FF45CAF31F00043F0
:1035B0007FF43CAF5FE700BF4FF0FF3C06E000BF89
:1035C0004FF0010C02E000BF4FF0010C4DF804CDAC
:1035D0004FEA40024FEA41037FEA226C18BF7FEABC
:1035E000236C11D001B052EA530C18BF90EA010FBE
:1035F00058BFB2EB030088BFC81738BF6FEAE1704D
:1036000018BF40F0010070477FEA226C02D15FEAE8
:10361000402C05D17FEA236CE4D15FEA412CE1D054
:103620005DF8040B704700BF844608466146FFE71B
:103630000FB5FFF7C9FF002848BF10F1000F0FBDFD
:103640004DF808EDFFF7F4FF0CBF012000205DF8F6
:1036500008FB00BF4DF808EDFFF7EAFF34BF01207B
:1036600000205DF808FB00BF4DF808EDFFF7E0FF14
:1036700094BF012000205DF808FB00BF4DF808ED65
:10368000FFF7D2FF94BF012000205DF808FB00BFC8
:103690004DF808EDFFF7C8FF34BF012000205DF8AA
:1036A00008FB00BF4FEA4002B2F1FE4F0FD34FF0CC
:1036B0009E03B3EB12620DD94FEA002343F000439F
:1036C00010F0004F23FA02F018BF404270474FF04D
:1036D0000000704712F1610F01D1420205D110F0D4
:1036E000004008BF6FF0004070474FF00000704787
:0400000508000000EF
:00000001FF
