:020000040800F2
:10000000C408002075080008D1080008D1080008BD
:10001000D1080008D1080008D1080008000000003D
:10002000000000000000000000000000D1080008EF
:10003000D108000800000000D1080008D10800081D
:10004000D1080008D1080008D1080008D10800082C
:10005000D1080008D1080008D1080008D10800081C
:10006000D1080008D108000825080008D1080008B8
:10007000D1080008D1080008D1080008D1080008FC
:10008000D1080008D1080008D1080008D1080008EC
:10009000D1080008D1080008D10800089907000815
:1000A000D1080008D1080008D1080008D1080008CC
:1000B000E905000839060008D1080008D108000841
:1000C000D1080008D1080008D1080008D1080008AC
:1000D000D1080008D1080008D1080008D10800089C
:1000E000D1080008D1080008D1080008D10800088C
:1000F000D1080008D1080008D1080008D10800087C
:10010000D1080008D1080008CD060008D108000871
:10011000D1080008D1080008D1080008F506000839
:10012000D1080008D1080008D1080008D10800084B
:10013000D1080008D1080008D1080008D10800083B
:10014000D1080008D1080008D1080008D10800082B
:10015000D1080008D1080008D1080008D10800081B
:10016000D1080008D1080008D1080008D10800080B
:10017000D1080008D1080008D1080008D1080008FB
:10018000D1080008D108000880B582B000AF012175
:100190004FF4804000F056FC10233B6000233B717D
:1001A00010237B710123BB713B46184601F0A4FF6D
:1001B0000421042000F0D8F800BF0837BD4680BDF8
:1001C00080B582B000AF01214FF4804000F03AFCCE
:1001D00020233B6000233B7110237B710123BB7103
:1001E0003B46184601F088FF0521042000F0BCF8CA
:1001F00000BF0837BD4680BD80B582B000AF012189
:100200004FF4804000F01EFC40233B6000233B7114
:1002100010237B710123BB713B46184601F06CFF34
:100220000621042000F0A0F800BF0837BD4680BDBD
:1002300080B500AFFFF7A8FFFFF7C2FFFFF7DCFFB5
:1002400000BF80BD80B582B000AF0A233B710023A0
:100250007B710123BB710123FB713B1D184602F02A
:1002600001F800BF0837BD4680BD00BF80B582B031
:1002700000AF17233B7100237B710223BB71012365
:10028000FB713B1D184601F0EDFF00BF0837BD466E
:1002900080BD00BF80B500AFFFF7D4FFFFF7E6FFDA
:1002A00000BF80BD80B582B000AF1C233B7101232D
:1002B0007B710023BB710123FB713B1D184601F0CC
:1002C000D1FF00BF0837BD4680BD00BF80B582B0FA
:1002D00000AF1D233B7101237B710123BB710123FF
:1002E000FB713B1D184601F0BDFF00BF0837BD463E
:1002F00080BD00BF80B582B000AF32233B710223C6
:100300007B710023BB710123FB713B1D184601F07B
:10031000A9FF00BF0837BD4680BD00BF80B582B0D1
:1003200000AF37233B7100237B710023BB71012396
:10033000FB713B1D184601F095FF00BF0837BD4615
:1003400080BD00BF80B500AF4FF4C06001F078FF02
:10035000FFF7A8FFFFF7BAFFFFF7CCFFFFF7DEFFBD
:10036000FFF798FF00BF80BD90B484B000AF034694
:100370000A46FB711346BB710023FB60BB7903F097
:1003800003039B000F2202FA03F3FB601649BB79BB
:100390009B08DBB21846144ABB799B08DBB20233D8
:1003A00052F82320FB68DB431A40831C41F82320CA
:1003B0000D48BB799B08DBB21C460B4ABB799B08F6
:1003C000DBB2023352F82320F979BB7903F003033F
:1003D0009B0001FA03F31A43A31C40F8232000BF3B
:1003E0001037BD4690BC70470038014080B582B0E0
:1003F00000AF0121102000F0E9FA4FF47C733B605C
:1004000000233B710023BB710223FB7103237B712B
:100410003B461946084801F037F94FF480633B60CA
:1004200001233B713B461946034801F02DF900BFFB
:100430000837BD4680BD00BF0010024080B582B0C5
:1004400000AF0121102000F0C1FA0F233B6001230F
:100450003B710023BB710223FB7103237B713B467D
:100460001946034801F010F900BF0837BD4680BDAA
:100470000010024080B582B000AF0121082000F0DA
:10048000A5FA02220C21104801F0C2F902220D2126
:100490000D4801F0BDF902220E210B4801F0B8F918
:1004A00002220F21084801F0B3F94FF470433B607A
:1004B00002233B713B461946034801F0E5F800BFB3
:1004C0000837BD4680BD00BF000C024080B582B039
:1004D00000AF0121102000F079FA4FF400633B6077
:1004E00001233B7102237B710123FB713B461946BB
:1004F000034801F0C9F800BF0837BD4680BD00BF02
:100500000010024080B582B000AF0121022000F04F
:100510005DFA4FF460433B6002233B710023BB71E3
:100520000023FB7102237B713B4619460A4801F008
:10053000ABF805220D21084801F06AF905220E21C9
:10054000054801F065F905220F21034801F060F923
:1005500000BF0837BD4680BD0004024080B500AF33
:10056000FFF7D0FFFFF7B2FF00BF80BD80B582B0BC
:1005700000AF0121012000F029FA02233B60032390
:100580003B710023FB713B461946034801F07CF8A0
:1005900000BF0837BD4680BD0000024080B582B074
:1005A00000AF4FF480533B6001233B710223FB718A
:1005B0003B461946034801F067F800BF0837BD46BF
:1005C00080BD00BF0010024080B500AFFFF752FFB2
:1005D000FFF734FFFFF7C2FFFFF708FFFFF7C6FF83
:1005E000FFF7DCFF00BF80BD98B500AF01214FF0E1
:1005F000804002F0B5F90346002B18D00D4BD3E92B
:10060000003413F1FF3344F1FF340A4AC2E90034E5
:10061000084BD3E90034234304D100214FF080403C
:1006200001F0F8FE01214FF0804002F0C3F900BF55
:1006300098BD00BF2000002080B500AF0121104808
:1006400002F08EF90346002B18D04FF480610D485C
:1006500001F0D0F800210A4801F0DCFE0021084832
:1006600001F0CAFE0021084801F0C6FE012106483B
:1006700001F0D0FE0121024802F09CF900BF80BDCC
:1006800000040040001002400014004080B500AF9C
:100690000121094801F0BEFE4FF48061074801F0D6
:1006A0009BF8074B00221A70064B00221A70064B6B
:1006B00000221A7000BF80BD0004004000100240FC
:1006C00004000020100000201800002080B500AFBA
:1006D0000121074802F044F90346002B05D0FFF73B
:1006E000D5FF0121024802F065F900BF80BD00BFBF
:1006F000000C004080B500AF01211D4802F030F928
:100700000346002B31D00021194801F083FE194B1C
:100710001B7883F00103DBB2002B06D0154B0122BE
:100720001A701549154801F03DF9154B1B7883F0F7
:100730000103DBB2002B06D0114B01221A701149C4
:10074000114801F02FF9114B1B7883F00103DBB244
:10075000002B06D00D4B01221A700D490D4801F0F7
:1007600021F90121024802F025F900BF80BD00BF38
:100770000014004004000020280000200800002091
:10078000100000203C0000201C0000201800002069
:10079000340000200C00002080B584B004AF20207D
:1007A00001F01CFD0346002B0ED0134B0293134B9C
:1007B0000193134B0093134B20221349134801F06C
:1007C0006FF8202001F02EFD402001F007FD0346C8
:1007D000002B0ED00E4B02930E4B01930E4B009349
:1007E0000E4B402208490E4801F05AF8402001F013
:1007F00019FD00BFBD4680BD3C0000201000002058
:100800001400002030000020001002401C000020D6
:1008100034000020180000202C00002000000020E0
:100820000C00002080B584B004AF102001F0D6FC8D
:100830000346002B0ED0094B0293094B0193094B41
:100840000093094B10220949094801F029F81020AA
:1008500001F0E8FC00BFBD4680BD00BF28000020BD
:10086000040000204800002040000020001002404A
:100870000800002080B582B000AF104B7B60104BA9
:100880003B6007E03B681A1D3A607A68111D796089
:1008900012681A603B680B4A9342F3D30A480B492B
:1008A0004FF000028842B8BF40F8042BFADB00F09A
:1008B0006BF800BF0837BD4680BD00BF2038000878
:1008C000000000200000002000000020C4000020E4
:1008D00080B400AFFEE700BF80B500AF01F07CF848
:1008E000FFF772FE00F09CFC00F054FAFFF72AFDBF
:1008F000FFF79EFC01F058FB00BF80BD80B500AF44
:100900001D4800F0B7FB00BF02211B4800F0CEFBE2
:100910000346002BF8D0184800F0BCFB03461A46EB
:10092000164B1A60154B1B6840F6020293420DDD10
:100930004FF48051124800F04FFF4FF4805110489F
:1009400000F030FF03461A460E4B1A600B4B1B6833
:10095000B3F5FA6F0DDA4FF48051094800F04AFF01
:100960004FF48051064800F01DFF03461A46054B20
:100970001A6000BF80BD00BF00200140440000207D
:10098000001002405400002080B500AFFFF7A4FF24
:100990000121094801F03EFD0121084801F03AFD1E
:1009A000074B00221A70074B074A1A6000F058FEE6
:1009B000FFF7A4FFFAE700BF00080040000C00406A
:1009C00050000020B40000203C08004080B483B0F8
:1009D00000AF78600B46FB70FB78002B06D009490E
:1009E000084B1A6B7B6813430B6306E00549054B04
:1009F0001A6B7B68DB4313400B6300BF0C37BD46AB
:100A000080BC70470038024080B483B000AF78608B
:100A10000B46FB70FB78002B06D00949084B1A6C7B
:100A20007B6813430B6406E00549054B1A6C7B6831
:100A3000DB4313400B6400BF0C37BD4680BC7047DE
:100A40000038024080B483B000AF78600B46FB7082
:100A5000FB78002B06D00949084B5A6C7B6813437E
:100A60004B6406E00549054B5A6C7B68DB43134039
:100A70004B6400BF0C37BD4680BC70470038024055
:100A800090B583B000AF78607B684FF00004094AEE
:100A9000C2E9003401214FF0804001F0BBFC00BFEF
:100AA000044BD3E900342343FAD100BF0C37BD46D1
:100AB00090BD00BF2000002090B583B000AF7860EB
:100AC0007B684FF47A7202FB03F34FF00004094A8B
:100AD000C2E9003401214FF0804001F09BFC00BFCF
:100AE000044BD3E900342343FAD100BF0C37BD4691
:100AF00090BD00BF2000002080B483B000AF7860BC
:100B000039607B6801333A6802FB03F3044A92FBC5
:100B1000F3F3013B18460C37BD4680BC704700BF5D
:100B200000BD010580B586B000AF01210120FFF7AF
:100B30006BFF154B7B6101233B613B69BB607869AF
:100B400002F048FE034619463869FFF7D5FF034611
:100B50009BB2BB800023BB810023FB803B1D194659
:100B60004FF0804001F0DEFB01214FF0804001F0AA
:100B700021FF012201214FF0804001F0CDFE00BF96
:100B80001837BD4680BD00BF0024744980B586B0CB
:100B900000AF01210220FFF737FF144B7B6140F2C9
:100BA00047333B613B69BB60786902F013FE034643
:100BB00019463869FFF7A0FF03469BB2BB800023AC
:100BC000BB810023FB803B1D1946094801F0AAFBAD
:100BD0000121074801F0EEFE01220121044801F045
:100BE0009BFE00BF1837BD4680BD00BF0050C34705
:100BF0000004004080B586B000AF01210420FFF75B
:100C000003FF42F210737B6140F247333B613B6963
:100C1000BB6079693869FFF76FFF03469BB2BB8001
:100C20000023BB810023FB803B1D1946034801F0D4
:100C300079FB00BF1837BD4680BD00BF00080040EB
:100C400080B586B000AF6023BB800123FB8000230A
:100C5000FB6000233B823B1D1946134801F0FAFB61
:100C60000821114801F0E4FD3B1D19460E4801F032
:100C70006BFC08210C4801F0F7FD3B1D19460A48A2
:100C800001F0EAFC0821084801F00CFE3B1D194662
:100C9000054801F067FD0821034801F01FFE00BF71
:100CA0001837BD4680BD00BF0008004080B500AFCA
:100CB000FFF7A0FFFFF7C4FF00BF80BD80B586B07F
:100CC00000AF01210820FFF79FFE10237B6142F255
:100CD0000F733B613B69BB6079693869FFF70CFFB3
:100CE00003469BB2BB800023BB810023FB803B1DDE
:100CF0001946084801F016FB0121064801F05AFE8A
:100D000001220121034801F007FE00BF1837BD464C
:100D100080BD00BF000C004080B586B000AF01214F
:100D20002020FFF771FE174B7B6146F2A7133B6152
:100D30001323FB603B697B60FB689BB23B80002315
:100D40003B8100237B803B4619460F4801F0EAFABD
:100D500001210D4801F02EFE012201210A4801F077
:100D6000DBFD3B690133FA68013202FB03F3074AFA
:100D700092FBF3F31A46064B1A6000BF1837BD46C4
:100D800080BD00BF00002A430014004000BD0105E3
:100D90003800002080B500AFFFF7C4FEFFF7F6FE75
:100DA000FFF784FFFFF78AFFFFF7B6FF00BF80BDA4
:100DB00080B485B000AF786039600023FB60002309
:100DC000FB727B685B68FB60FB6823F0407323F475
:100DD0008073FB603B681B791A023B681B681343F6
:100DE000FA681343FB607B68FA685A607B689B680B
:100DF000FB60FA68174B1340FB603B681A693B685D
:100E0000DB681A433B689B681A433B685B795B006D
:100E10001343FA681343FB607B68FA689A607B6847
:100E2000DB6AFB60FB6823F47003FB603B681B7D9F
:100E3000013BDAB2FB7A1343FB72FB7A1B05FA68BB
:100E40001343FB607B68FA68DA6200BF1437BD4663
:100E500080BC7047FDF7FFC080B485B000AF7860FC
:100E60000023FB600E4B5B68FB60FA680D4B134080
:100E7000FB607B681A687B685B681A437B689B68C9
:100E80001A437B68DB681343FA681343FB60044A28
:100E9000FB68536000BF1437BD4680BC704700BF7D
:100EA00000230140E030FCFF80B483B000AF7860E5
:100EB0000B46FB70FB78002B06D07B689B6843F0E9
:100EC00001027B689A6005E07B689B6823F0010261
:100ED0007B689A6000BF0C37BD4680BC704700BF7E
:100EE00080B485B000AF7860084611461A460346C4
:100EF000FB700B46BB7013467B700023FB60002326
:100F0000BB60FB78092B23D97B68DB68FB60FB782F
:100F1000A3F10A0213465B001344072202FA03F30B
:100F2000BB60BB68DB43FA681340FB607978FB78F1
:100F3000A3F10A0213465B00134401FA03F3BB60FA
:100F4000FA68BB681343FB607B68FA68DA601EE0EE
:100F50007B681B69FB60FA7813465B001344072229
:100F600002FA03F3BB60BB68DB43FA681340FB6023
:100F70007978FA7813465B00134401FA03F3BB60F7
:100F8000FA68BB681343FB607B68FA681A61BB7838
:100F9000062B21D87B685B6BFB60BB785A1E13461F
:100FA0009B0013441F2202FA03F3BB60BB68DB43C0
:100FB000FA681340FB60F978BB785A1E13469B0011
:100FC000134401FA03F3BB60FA68BB681343FB6088
:100FD0007B68FA685A6347E0BB780C2B21D87B68A2
:100FE0001B6BFB60BB78DA1F13469B0013441F2268
:100FF00002FA03F3BB60BB68DB43FA681340FB6093
:10100000F978BB78DA1F13469B00134401FA03F307
:10101000BB60FA68BB681343FB607B68FA681A63BD
:1010200022E07B68DB6AFB60BB78A3F10D0213460C
:101030009B0013441F2202FA03F3BB60BB68DB432F
:10104000FA681340FB60F978BB78A3F10D021346F0
:101050009B00134401FA03F3BB60FA68BB681343B7
:10106000FB607B68FA68DA6200BF1437BD4680BC5B
:10107000704700BF80B483B000AF78607B689B6826
:1010800043F080427B689A6000BF0C37BD4680BC4D
:10109000704700BF80B483B000AF78607B68DB6CC2
:1010A0009BB218460C37BD4680BC704780B485B0F3
:1010B00000AF78600B46FB700023FB737B681A68F7
:1010C000FB781340002B02D00123FB7301E00023C7
:1010D000FB73FB7B18461437BD4680BC704700BFCE
:1010E000B0B500AF234B1B68184601F0D7FD03468F
:1010F0000C461A4623464FF000001F4901F06EFCD3
:1011000003460C46184621464FF000024FF00003FC
:1011100002F0A8F80346002B29D0184BDB6A1846CA
:1011200002F0B0F90546134B1B68184601F0B6FDF6
:1011300003460C461A4623464FF000000E4901F0C4
:101140004DFC03460C46184621464FF000020A4B60
:1011500001F022FF03460C461846214602F08CF8A7
:1011600003461946284602F0E5F90346FFE718460C
:10117000B0BD00BF0C0000200000E03F00080040B0
:10118000B0B500AF234B1B68184601F087FD03463E
:101190000C461A4623464FF000001F4901F01EFC82
:1011A00003460C46184621464FF000024FF000035C
:1011B00002F058F80346002B29D0184BDB6A18467A
:1011C00002F060F90546134B1B68184601F066FDF6
:1011D00003460C461A4623464FF000000E4901F024
:1011E000FDFB03460C46184621464FF000020A4B11
:1011F00001F0D2FE03460C461846214602F03CF8A8
:1012000003461946284602F095F90346FFE71846BB
:10121000B0BD00BF080000200000E03F0008004013
:1012200080B586B000AF01214FF48040FFF7ECFBA2
:101230000023BB8000233B8102237B810023BB81F1
:101240004FF40073FB8138233B8280237B8207238A
:10125000BB824FF48273FB803B1D1946054800F0AA
:10126000B1FE0121034800F0F1FE00BF1837BD4672
:1012700080BD00BF0038004080B400AF184B1B7821
:101280009AB2184B1A80164B5B789AB2164B1A809A
:10129000134B9B789AB2154B1A80114BDB789AB29C
:1012A000134B1A800E4B1B799AB2124B1A800C4BBF
:1012B0005B799AB2104B1A80094B9B799AB20F4B0B
:1012C0001A80074BDB799AB20D4B1A80044B1B7ABC
:1012D0009AB20C4B1A8000BFBD4680BC704700BF5D
:1012E00090000020640000205C00002084000020AA
:1012F0008600002058000020A0000020660000208A
:101300006E0000208800002080B584B000AF034646
:10131000FB71FB799BB219460F4800F0C3FE00BF7A
:1013200002210D4800F0CCFE0346002BF8D000BF90
:101330000121094800F0C4FE0346002BF8D0142018
:10134000FFF79EFB044800F0A1FE0346FB73FB7B06
:1013500018461037BD4680BD0038004090B585B0B6
:1013600000AF786039604FF40061144800F042FA31
:101370000023FB6010E07A68FB68D4187A68FB6889
:1013800013441B781846FFF7BFFF03462370FFF78F
:1013900073FFFB680133FB60FA683B689A42EAD34B
:1013A000FFF76AFF4FF40061044800F015FA32209D
:1013B000FFF766FB00BF1437BD4690BD001002402A
:1013C00080B500AF114B01221A70104B42225A70A7
:1013D0000E4B00229A700D4B0022DA700B4B00224C
:1013E0001A710A4B00225A71084B00229A71074B5E
:1013F0000022DA71054B00221A7209210348FFF717
:10140000ADFF3220FFF758FB00BF80BD90000020E9
:1014100080B500AF104B01221A700F4B44225A7056
:101420000D4B00229A700C4B0122DA700A4B0322FA
:101430001A71094B00225A71074B00229A71064B10
:101440000022DA71044B00221A7209210248FFF7C8
:1014500085FF00BF80BD00BF9000002080B500AFB9
:101460000A4B01221A70094B43225A70074B002283
:101470009A70064B0122DA70044B00221A71052182
:101480000248FFF76BFF00BF80BD00BF9000002047
:1014900080B500AF104B01221A700F4B43225A70D7
:1014A0000D4B00229A700C4B0022DA700A4B5A2224
:1014B0001A71094B5A225A71074B5A229A71064BDC
:1014C0005A22DA71044B5A221A7209210248FFF794
:1014D00045FF00BF80BD00BF9000002080B500AF79
:1014E000FFF7BCFFFFF794FFFFF7D2FFFFF768FF9E
:1014F000034B044A1A60044B01221A7000BF80BDDE
:10150000B00000203333333F5000002080B485B05A
:1015100000AF03460A46FB711346BB710123FB6013
:101520000023BB6005E0FB685B00FB60BB68013328
:10153000BB60BA79BB689A42F5DCFB79074AD35C99
:101540001A46FB681340002B01D1012300E0002361
:1015500018461437BD4680BC704700BF900000207D
:1015600080B500AF01210420FFF7D0FF0346002B18
:1015700008D0084B4FF07E521A60074A064BDB6AD0
:10158000136405E0034B054A1A60034B00221A64FA
:1015900000BF80BDB0000020000800403333333F5F
:1015A00080B500AF03210320FFF7B0FF0346002BF7
:1015B00019D0164B1B78002B1BD0154B1B78002B1A
:1015C00006D0134B00221A70124B00229A6306E0D9
:1015D0000F4B01221A700F4A0E4BDB6A93630B4BC1
:1015E00000221A7005E00C4B00221A70074B0122F2
:1015F0001A70064B1B781A46084B1A60044B1B786E
:101600001A46074B1A6000BF80BD00BF7C00002057
:101610006C000020000800405A0000209C000020C0
:101620007000002080B500AFFFF79AFFFFF7B8FF0A
:10163000094B1B78002B08D0084B1B68002B04D0EB
:1016400000F05AFC00F054FB03E000F09DFA00F0BB
:101650009BFB00BF80BD00BF6C0000205400002039
:1016600080B500AF074B1B7883F00103DBB2002B82
:1016700001D0FFF733FFFFF7A3FEFFF7D3FF00BF53
:10168000184680BD5000002080B487B000AF78605D
:10169000396000237B6100233B610023FB60002352
:1016A0007B6176E001227B6902FA03F33B613B68D0
:1016B0001A683B691340FB60FA683B699A4265D13E
:1016C0007B681A687B695B00032101FA03F3DB4343
:1016D0001A407B681A607B681A683B681B79194658
:1016E0007B695B0001FA03F31A437B681A603B686D
:1016F0001B79012B03D03B681B79022B2ED17B6811
:101700009A687B695B00032101FA03F3DB431A400B
:101710007B689A607B689A683B685B7919467B694D
:101720005B0001FA03F31A437B689A607B685A688E
:101730007B699BB2194601238B40DB431A407B68CF
:101740005A607B685B683A68927911467A6992B20E
:1017500001FA02F292B21A437B685A607B68DA6837
:101760007B699BB25B00032101FA03F3DB431A4060
:101770007B68DA607B68DA683B68DB7919467B69ED
:101780005B0001FA03F31A437B68DA607B6901337B
:101790007B617B690F2B85D900BF1C37BD4680BCA0
:1017A000704700BF80B485B000AF78600B467B8087
:1017B0000023FB737B681A697B881340002B02D0DF
:1017C0000123FB7301E00023FB73FB7B18461437F6
:1017D000BD4680BC704700BF80B483B000AF786066
:1017E0000B467B807B687A881A8300BF0C37BD4626
:1017F00080BC704780B483B000AF78600B467B80BC
:101800007B687A885A8300BF0C37BD4680BC70471E
:1018100080B485B000AF78600B467B8013467B7048
:101820000023FB600023BB607A787B8803F007030A
:101830009B0002FA03F3FB607B88DB089BB218462F
:101840007B88DB089BB21A467B68083253F822205B
:101850007B8803F007039B000F2101FA03F3DB43AE
:1018600002EA03017B6800F1080243F822107B883A
:10187000DB089BB21A467B68083253F82220FB68CB
:101880001343BB607B88DB089BB21A467B68083237
:10189000B96843F8221000BF1437BD4680BC7047BA
:1018A00090B585B000AFF860B9603B601346FB802F
:1018B0007B6A1B7883F00103DBB2002B5DD0FB88D1
:1018C0001946B868FFF76EFF0346002B05D0304B72
:1018D0005B6A1A463B681A604FE02D4B5B6A1A46FA
:1018E0003B6A1A603B6A1A683B681B68D31A002B74
:1018F00040DD3B6A1A683B681B68D31A184601F042
:10190000C5FD0446224BDB6A0133184601F0BAFDDF
:1019100003461946204601F0C1FE03461C461D4BF6
:101920001B68184601F0AEFD03461946204601F03B
:10193000B5FE03461849184601F0FCFD03461A4659
:10194000164B1A60154B1B68184601F0A7F90EA339
:10195000D3E9002301F068FC0346002B03D0FB68A9
:101960000F4A1A6003E00D4B1A68FB681A60BB6AE5
:1019700000221A807B6A01221A7000BF1437BD460C
:1019800090BD00BFAFF300809A9999999999A93FAA
:10199000001400403800002000002A43BC00002052
:1019A000CDCC4C3D80B483B000AF786039603B68EB
:1019B0001B880A2B04D97B684FF07E521A6005E021
:1019C0003B681B8801339AB23B681A8000BF0C3712
:1019D000BD4680BC704700BF80B500AF124A124BB5
:1019E0001B6843F0010313600F4B00229A600E4AFC
:1019F0000D4B1B6823F0847323F4803313600A4B70
:101A00000A4A5A60084A084B1B6823F48023136073
:101A1000054B0022DA6000F00DF8054B4FF0006234
:101A20009A6000BF80BD00BF003802401030002423
:101A300000ED00E080B483B000AF00237B600023A2
:101A40003B60354A344B1B6843F480331360324BA0
:101A50001B6803F400333B607B6801337B603B68A9
:101A6000002B03D17B68B3F5A06FF0D12A4B1B6824
:101A700003F40033002B02D001233B6001E000237C
:101A80003B603B68012B42D1234A234B1B6C43F044
:101A900080531364214A214B1B6843F48043136035
:101AA0001D4A1D4B9B6893601B4A1B4B9B6843F46C
:101AB00000439360184A184B9B6843F4A05393600B
:101AC000154B174A5A60144A134B1B6843F0807336
:101AD000136000BF104B1B6803F00073002BF9D09C
:101AE000104B40F205621A600B4A0B4B9B6823F0C7
:101AF00003039360084A084B9B6843F0020393601A
:101B000000BF054B9B6803F00C03082BF9D100BF05
:101B10000C37BD4680BC7047003802400070004062
:101B200008544007003C024080B582B000AF034635
:101B30000A46FB711346BB71FB79002B04D00421CC
:101B40000E48FFF749FE03E004210C48FFF752FE60
:101B5000BB79002B04D008210848FFF73DFE03E0C5
:101B600008210648FFF746FEFB79054A1360BB795A
:101B7000044A136000BF0837BD4680BD0010024014
:101B8000600000206800002080B500AF0021002028
:101B900000F06AF800BF80BD98B500AF134BDB6A58
:101BA000184601F06FFC0246114B1B68194610469F
:101BB00001F0C0FC03461C460E4B1B7AC3F17F03A9
:101BC000184601F063FC03461946204601F0B2FCBA
:101BD00003460949184601F061FD0346184601F025
:101BE000F9FD0246054B1A6000BF98BD0008004091
:101BF000B0000020900000200000FE427400002091
:101C000098B500AF144BDB6A184601F03BFC024666
:101C1000124B1B681946104601F08CFC03461C460B
:101C20000F4B1B7A7F3B184601F030FC03461946E8
:101C3000204601F07FFC03464FF08641184601F034
:101C40002DFD034683F00043184601F0C3FD024614
:101C5000044B1A6000BF98BD00080040B00000208F
:101C6000900000207400002080B584B000AF786040
:101C700039603A687B68D31AFB60FB68002B04DD8F
:101C800000210120FFF750FF0EE0FB68002B07DA70
:101C9000FB685B42FB6001210020FFF745FF03E08A
:101CA00000210020FFF740FF034AFB68D36300BF19
:101CB0001037BD4680BD00BF0008004080B500AFB2
:101CC000094B1B7A7E2B02D8FFF766FF0AE0064B12
:101CD0001B7A5BB2002B02DAFFF792FF02E0034BA4
:101CE00000221A6000BF80BD900000207400002018
:101CF00080B500AFFFF7E2FFFFF7F2F903461846A1
:101D000001F068FD0246064B1A60054B1A68054B48
:101D10001B6819461046FFF7A7FF00BF80BD00BF34
:101D2000780000207400002080B582B000AF034628
:101D30000A46FB711346BB71FB79002B04D00121CD
:101D40000E48FFF749FD03E001210C48FFF752FD63
:101D5000BB79002B04D002210848FFF73DFD03E0CA
:101D600002210648FFF746FDFB79054A1360BB795F
:101D7000044A136000BF0837BD4680BD0010024012
:101D80008C0000204C00002080B500AF0021002016
:101D900000F06AF800BF80BD98B500AF134BDB6A56
:101DA000184601F06FFB0246114B1B68194610469E
:101DB00001F0C0FB03461C460E4B9B79C3F17F0329
:101DC000184601F063FB03461946204601F0B2FBBA
:101DD00003460949184601F061FC0346184601F024
:101DE000F9FC0246054B1A6000BF98BD0008004090
:101DF000B0000020900000200000FE42A80000205B
:101E000098B500AF144BDB6A184601F03BFB024665
:101E1000124B1B681946104601F08CFB03461C460A
:101E20000F4B9B797F3B184601F030FB0346194668
:101E3000204601F07FFB03464FF08641184601F033
:101E40002DFC034683F00043184601F0C3FC024614
:101E5000044B1A6000BF98BD00080040B00000208D
:101E600090000020A800002080B584B000AF78600A
:101E70003960124A7B6813603A687B68D31AFB604A
:101E8000FB68002B04DD00210120FFF74DFF0EE071
:101E9000FB68002B07DAFB685B42FB600121002036
:101EA000FFF742FF03E000210020FFF73DFF044A57
:101EB000FB68536300BF1037BD4680BDC0000020E3
:101EC0000008004080B500AF094B9B797E2B02D8FB
:101ED000FFF762FF0AE0064B9B795BB2002B02DA48
:101EE000FFF78EFF02E0034B00221A6000BF80BDA7
:101EF00090000020A800002080B500AFFFF7E2FFAF
:101F0000FFF73EF90346184601F064FC0246064B13
:101F10001A60054B1A68054B1B6819461046FFF7F7
:101F2000A3FF00BF80BD00BF78000020A8000020F4
:101F300080B584B000AF00233B6000237B600023AA
:101F4000BB600023FB603B461846FEF785FF00BFE1
:101F50001037BD4680BD00BF80B586B000AF0121FF
:101F60004FF48070FEF76EFD00233B6000233B7151
:101F700001237B710023FB600023BB6000233B61D6
:101F800001233B753B4619460648FEF711FF042323
:101F9000012201210348FEF7A3FF00BF1837BD4609
:101FA00080BD00BF0020014080B500AFFFF7C0FF3B
:101FB000FFF7D2FF01210248FEF776FF00BF80BD88
:101FC0000020014080B485B000AF78603960002304
:101FD000FB817B681B88FB81FB8903F44153FB81F8
:101FE0003B681A883B685B8813439AB23B689B88BE
:101FF00013439AB23B68DB8813439AB23B681B8950
:1020000013439AB23B685B8913439AB23B689B893E
:1020100013439AB23B68DB8913439AB2FB8913439B
:10202000FB817B68FA891A807B689B8B9BB223F4C7
:1020300000639AB27B689A833B681A8A7B681A822B
:1020400000BF1437BD4680BC704700BF80B483B06A
:1020500000AF78600B46FB70FB78002B08D07B68E4
:102060001B889BB243F040039AB27B681A8007E05A
:102070007B681B889BB223F040039AB27B681A806E
:1020800000BF0C37BD4680BC704700BF80B483B032
:1020900000AF78607B689B899BB218460C37BD46C1
:1020A00080BC704780B483B000AF78600B467B8003
:1020B0007B687A889A8100BF0C37BD4680BC704728
:1020C00080B485B000AF78600B467B800023FB7343
:1020D0007B681B899AB27B8813409BB2002B02D08D
:1020E0000123FB7301E00023FB73FB7B18461437CD
:1020F000BD4680BC704700BF80B485B000AF78603B
:102100000023FB60344BFB607B689B79002B4FD036
:102110003149314B1A687B681B68DB4313400B6005
:102120002D492D4B5A687B681B68DB4313404B607D
:102130007B681B791A46FB681344FB60FB68FA68EE
:1021400011687A6812680A431A602349224B9A6818
:102150007B681B68DB4313408B601F491E4BDA68AA
:102160007B681B68DB431340CB607B685B79102B7B
:102170000ED11949184B9A687B681B6813438B6012
:102180001549154BDA687B681B681343CB601DE06B
:10219000114BFB607B685B791A46FB681344FB605C
:1021A000FB68FA6811687A6812680A431A600DE0E1
:1021B0007B681B791A46FB681344FB60FB68FA686E
:1021C00011687A681268D2430A401A6000BF143757
:1021D000BD4680BC704700BF003C014080B485B064
:1021E00000AF78600023FB730023BB600C4B1A68C0
:1021F0007B681340BB600A4B5A697B681340002B15
:1022000005D0BB68002B02D00123FB7301E0002343
:10221000FB73FB7B18461437BD4680BC704700BF7C
:10222000003C014080B483B000AF7860034A7B6813
:10223000536100BF0C37BD4680BC7047003C014075
:1022400080B483B000AF7860054A7B6843F0BF6319
:1022500043F40033D36000BF0C37BD4680BC7047E9
:1022600000ED00E080B485B000AF78600023FB7320
:102270000023BB730F237B737B68DB78002B38D084
:10228000264BDB68DB4303F4E0631B0AFB73FB7B39
:10229000C3F10403BB737A7BFB7B42FA03F37B73CA
:1022A0007B685B781A46BB7B02FA03F3FB737B689F
:1022B0009A787B7B1340DAB2FB7B1343FB73FB7B87
:1022C0001B01FB73164A7B681B781344FA7B83F867
:1022D0000023134A7B681B785B09DBB218467B68D6
:1022E0001B7803F01F03012101FA03F342F82030A9
:1022F0000FE00B497B681B785B09DBB218467B68F3
:102300001B7803F01F0301229A4000F1200341F8DB
:10231000232000BF1437BD4680BC704700ED00E0AD
:1023200000E100E080B485B000AF78603960002340
:10233000FB817B681B88FB817B68284A934213D012
:102340007B68274A93420FD07B68B3F1804F0BD054
:102350007B68244A934207D07B68234A934203D088
:102360007B68224A934208D1FB8923F07003FB81EA
:102370003B685A88FB891343FB817B681C4A934264
:102380000CD07B681B4A934208D0FB8923F440732E
:10239000FB813B681A89FB891343FB817B68FA89BF
:1023A0001A803B685A687B68DA623B681A887B68E7
:1023B0001A857B68094A934203D07B68084A934296
:1023C00004D13B689B7A9AB27B681A867B680122AB
:1023D0009A8200BF1437BD4680BC704700000140A0
:1023E000000401400004004000080040000C0040D0
:1023F000001000400014004080B483B000AF78604B
:1024000039607B683A685A6200BF0C37BD4680BCB1
:10241000704700BF80B483B000AF78600B46FB709C
:10242000FB78002B08D07B681B889BB243F001032C
:102430009AB27B681A8007E07B681B889BB223F006
:1024400001039AB27B681A8000BF0C37BD4680BC7E
:10245000704700BF80B485B000AF7860396000235A
:102460007B810023FB810023BB817B681B8C9BB29B
:1024700023F001039AB27B681A847B681B8CFB8172
:102480007B689B88BB817B681B8B7B817B8923F06E
:1024900070037B817B8923F003037B813B681A886F
:1024A0007B8913437B81FB8923F00203FB813B681B
:1024B0009A89FB891343FB813B685A88FB89134344
:1024C000FB817B681E4A934203D07B681D4A93427E
:1024D00023D1FB8923F00803FB813B68DA89FB8960
:1024E0001343FB81FB8923F00403FB813B689A883B
:1024F000FB891343FB81BB8923F48073BB81BB89B8
:1025000023F40073BB813B681A8ABB891343BB81E8
:102510003B685A8ABB891343BB817B68BA899A801E
:102520007B687A891A833B689A687B685A637B6800
:10253000FA891A8400BF1437BD4680BC704700BFBB
:10254000000001400004014080B485B000AF786015
:10255000396000237B810023FB810023BB817B68E2
:102560001B8C9BB223F010039AB27B681A847B68A1
:102570001B8CFB817B689B88BB817B681B8B7B8171
:102580007B8923F4E0437B817B8923F440737B8147
:102590003B681B881B029AB27B8913437B81FB89B2
:1025A00023F02003FB813B689B891B019AB2FB89C6
:1025B0001343FB813B685B881B019AB2FB89134381
:1025C000FB817B68224A934203D07B68214A934275
:1025D0002BD1FB8923F08003FB813B68DB891B0146
:1025E0009AB2FB891343FB81FB8923F04003FB81F3
:1025F0003B689B881B019AB2FB891343FB81BB8913
:1026000023F48063BB81BB8923F40063BB813B68F7
:102610001B8A9B009AB2BB891343BB813B685B8AD0
:102620009B009AB2BB891343BB817B68BA899A80AD
:102630007B687A891A833B689A687B689A637B68AF
:10264000FA891A8400BF1437BD4680BC704700BFAA
:10265000000001400004014080B485B000AF786004
:10266000396000237B810023FB810023BB817B68D1
:102670001B8C9BB223F480739AB27B681A847B68AC
:102680001B8CFB817B689B88BB817B689B8B7B81E0
:102690007B8923F070037B817B8923F003037B819B
:1026A0003B681A887B8913437B81FB8923F4007381
:1026B000FB813B689B891B029AB2FB891343FB8118
:1026C0003B685B881B029AB2FB891343FB817B68E2
:1026D000224A934203D07B68214A93422BD1FB8943
:1026E00023F40063FB813B68DB891B029AB2FB8900
:1026F0001343FB81FB8923F48063FB813B689B8848
:102700001B029AB2FB891343FB81BB8923F48053DC
:10271000BB81BB8923F40053BB813B681B8A1B012F
:102720009AB2BB891343BB813B685B8A1B019AB297
:10273000BB891343BB817B68BA899A807B687A899D
:102740009A833B689A687B68DA637B68FA891A84A3
:1027500000BF1437BD4680BC704700BF0000014079
:102760000004014080B485B000AF78603960002378
:10277000BB8100237B810023FB817B681B8C9BB288
:1027800023F480539AB27B681A847B681B8C7B810C
:102790007B689B88FB817B689B8BBB81BB8923F417
:1027A000E043BB81BB8923F44073BB813B681B883A
:1027B0001B029AB2BB891343BB817B8923F400536C
:1027C0007B813B689B891B039AB27B8913437B8186
:1027D0003B685B881B039AB27B8913437B817B68D0
:1027E000114A934203D07B68104A93420AD1FB8975
:1027F00023F48043FB813B681B8A9B019AB2FB89CF
:102800001343FB817B68FA899A807B68BA899A8333
:102810003B689A687B681A647B687A891A8400BF6F
:102820001437BD4680BC70470000014000040140E1
:1028300080B485B000AF78600B467B800023FB81BD
:102840007B681B8BFB81FB8923F00803FB81FA89E2
:102850007B881343FB817B68FA891A8300BF143796
:10286000BD4680BC704700BF80B485B000AF7860C3
:102870000B467B800023FB817B681B8BFB81FB89E4
:1028800023F40063FB817B881B029AB2FB8913430C
:10289000FB817B68FA891A8300BF1437BD4680BC70
:1028A000704700BF80B485B000AF78600B467B8076
:1028B0000023FB817B689B8BFB81FB8923F0080352
:1028C000FB81FA897B881343FB817B68FA899A83B1
:1028D00000BF1437BD4680BC704700BF80B485B0D0
:1028E00000AF78600B467B800023FB817B689B8B6D
:1028F000FB81FB8923F40063FB817B881B029AB276
:10290000FB891343FB817B68FA899A8300BF1437E4
:10291000BD4680BC704700BF80B483B000AF786014
:102920000B467B8013467B707B78002B08D07B683E
:102930009B899AB27B8813439AB27B689A8109E09B
:102940007B689B899AB27B88DB439BB213409AB227
:102950007B689A8100BF0C37BD4680BC704700BFC2
:1029600080B485B000AF78600B467B800023FB739A
:102970000023BB8100237B817B681B8A9AB27B8802
:102980001340BB817B689B899AB27B8813407B8113
:10299000BB89002B05D07B89002B02D00123FB7360
:1029A00001E00023FB73FB7B18461437BD4680BC57
:1029B000704700BF80B483B000AF78600B467B8067
:1029C0007B88DB439AB27B681A8200BF0C37BD4616
:1029D00080BC704781F0004102E000BF83F00043FB
:1029E00030B54FEA41044FEA430594EA050F08BFAA
:1029F00090EA020F1FBF54EA000C55EA020C7FEA6E
:102A0000645C7FEA655C00F0E2804FEA5454D4EBEA
:102A10005555B8BF6D420CDD2C4480EA020281EAB4
:102A2000030382EA000083EA010180EA020281EAEC
:102A30000303362D88BF30BD11F0004F4FEA01313E
:102A40004FF4801C4CEA113102D0404261EB41014D
:102A500013F0004F4FEA03334CEA133302D05242D3
:102A600063EB430394EA050F00F0A780A4F101048F
:102A7000D5F1200E0DDB02FA0EFC22FA05F28018C9
:102A800041F1000103FA0EF2801843FA05F35941AF
:102A90000EE0A5F120050EF1200E012A03FA0EFC2E
:102AA00028BF4CF0020C43FA05F3C01851EBE37158
:102AB00001F0004507D54FF0000EDCF1000C7EEB75
:102AC00000006EEB0101B1F5801F1BD3B1F5001FB3
:102AD0000CD349085FEA30004FEA3C0C04F10104D2
:102AE0004FEA445212F5800F80F09A80BCF1004FFB
:102AF00008BF5FEA500C50F1000041EB045141EA7D
:102B0000050130BD5FEA4C0C404141EB010111F47D
:102B1000801FA4F10104E9D191F0000F04BF014628
:102B20000020B1FA81F308BF2033A3F10B03B3F106
:102B300020020CDA0C3208DD02F1140CC2F10C0296
:102B400001FA0CF021FA02F10CE002F11402D8BFF4
:102B5000C2F1200C01FA02F120FA0CFCDCBF41EAC0
:102B60000C019040E41AA2BF01EB0451294330BD8F
:102B70006FEA04041F3C1CDA0C340EDC04F114046C
:102B8000C4F1200220FA04F001FA02F340EA030043
:102B900021FA04F345EA030130BDC4F10C04C4F189
:102BA000200220FA02F001FA04F340EA0300294669
:102BB00030BD21FA04F0294630BD94F0000F83F4B3
:102BC000801306BF81F480110134013D4EE77FEA96
:102BD000645C18BF7FEA655C29D094EA050F08BFE2
:102BE00090EA020F05D054EA000C04BF19461046C3
:102BF00030BD91EA030F1EBF0021002030BD5FEA07
:102C0000545C05D14000494128BF41F0004130BD2E
:102C100014F580043CBF01F5801130BD01F0004582
:102C200045F0FE4141F470014FF0000030BD7FEAF5
:102C3000645C1ABF194610467FEA655C1CBF0B46F0
:102C4000024650EA013406BF52EA033591EA030F07
:102C500041F4002130BD00BF90F0000F04BF0021FF
:102C6000704730B54FF4806404F132044FF0000532
:102C70004FF0000150E700BF90F0000F04BF0021AB
:102C8000704730B54FF4806404F1320410F0004511
:102C900048BF40424FF000013EE700BF42004FEA0C
:102CA000E2014FEA31014FEA02701FBF12F07F4389
:102CB00093F07F4F81F06051704792F0000F14BF86
:102CC00093F07F4F704730B54FF4607401F00045CA
:102CD00021F0004120E700BF50EA010208BF704721
:102CE00030B54FF000050AE050EA010208BF704716
:102CF00030B511F0004502D5404261EB41014FF47F
:102D0000806404F132045FEA915C3FF4DCAE4FF082
:102D100003025FEADC0C18BF03325FEADC0C18BF69
:102D2000033202EBDC02C2F1200300FA03FC20FABA
:102D300002F001FA03FE40EA0E0021FA02F1144407
:102D4000C1E600BF70B54FF0FF0C4CF4E06C1CEA1C
:102D500011541DBF1CEA135594EA0C0F95EA0C0F91
:102D600000F0DEF82C4481EA030621EA4C5123EA04
:102D70004C5350EA013518BF52EA033541F4801133
:102D800043F4801338D0A0FB02CE4FF00005E1FBE6
:102D900002E506F00042E0FB03E54FF00006E1FB30
:102DA00003569CF0000F18BF4EF0010EA4F1FF0473
:102DB000B6F5007F64F5407404D25FEA4E0E6D41B3
:102DC00046EB060642EAC62141EA55514FEAC520C4
:102DD00040EA5E504FEACE2EB4F1FD0C88BFBCF540
:102DE000E06F1ED8BEF1004F08BF5FEA500E50F1F1
:102DF000000041EB045170BD06F0004646EA0101B7
:102E000040EA020081EA0301B4EB5C04C2BFD4EBE8
:102E10000C0541EA045170BD41F480114FF0000EE1
:102E2000013C00F3AB8014F1360FDEBF002001F04F
:102E3000004170BDC4F10004203C35DA0C341BDCC9
:102E400004F11404C4F1200500FA05F320FA04F09B
:102E500001FA05F240EA020001F0004221F00041CF
:102E600010EBD37021FA04F642EB06015EEA430E42
:102E700008BF20EAD37070BDC4F10C04C4F1200572
:102E800000FA04F320FA05F001FA04F240EA020025
:102E900001F0004110EBD37041F100015EEA430EF6
:102EA00008BF20EAD37070BDC4F1200500FA05F216
:102EB0004EEA020E20FA04F301FA05F243EA020395
:102EC00021FA04F001F0004121FA04F220EA0200A4
:102ED00000EBD3705EEA430E08BF20EAD37070BDEA
:102EE00094F0000F0FD101F00046400041EB0101CA
:102EF00011F4801F08BF013CF7D041EA060195F0AC
:102F0000000F18BF704703F00046520043EB030365
:102F100013F4801F08BF013DF7D043EA0603704752
:102F200094EA0C0F0CEA135518BF95EA0C0F0CD05D
:102F300050EA410618BF52EA4306D1D181EA0301A3
:102F400001F000414FF0000070BD50EA410606BF9D
:102F50001046194652EA430619D094EA0C0F02D1E2
:102F600050EA013613D195EA0C0F05D152EA033627
:102F70001CBF104619460AD181EA030101F0004145
:102F800041F0FE4141F470014FF0000070BD41F08E
:102F9000FE4141F4780170BD70B54FF0FF0C4CF468
:102FA000E06C1CEA11541DBF1CEA135594EA0C0F87
:102FB00095EA0C0F00F0A7F8A4EB050481EA030ED4
:102FC00052EA03354FEA013100F088804FEA0333BB
:102FD0004FF0805545EA131343EA12634FEA022289
:102FE00045EA111545EA10654FEA00260EF000414A
:102FF0009D4208BF964244F1FD0404F5407402D29C
:103000005B084FEA3202B61A65EB03055B084FEA2C
:1030100032024FF480104FF4002CB6EB020E75EB29
:10302000030E22BFB61A754640EA0C005B084FEA51
:103030003202B6EB020E75EB030E22BFB61A7546CE
:1030400040EA5C005B084FEA3202B6EB020E75EB19
:10305000030E22BFB61A754640EA9C005B084FEA91
:103060003202B6EB020E75EB030E22BFB61A75469E
:1030700040EADC0055EA060E18D04FEA051545EA8D
:1030800016754FEA06164FEAC30343EA52734FEA36
:10309000C2025FEA1C1CC0D111F4801F0BD141EAAF
:1030A00000014FF000004FF0004CB6E711F4801F14
:1030B00004BF01430020B4F1FD0C88BFBCF5E06FF4
:1030C0003FF6AFAEB5EB030C04BFB6EB020C5FEA04
:1030D000500C50F1000041EB045170BD0EF0004E59
:1030E0004EEA113114EB5C04C2BFD4EB0C0541EA8B
:1030F000045170BD41F480114FF0000E013C90E688
:1031000045EA060E8DE60CEA135594EA0C0F08BF4B
:1031100095EA0C0F3FF43BAF94EA0C0F0AD150EA4A
:1031200001347FF434AF95EA0C0F7FF425AF1046DD
:1031300019462CE795EA0C0F06D152EA03353FF405
:10314000FDAE1046194622E750EA410618BF52EA82
:1031500043067FF4C5AE50EA41047FF40DAF52EA56
:1031600043057FF4EBAE12E74FF0FF3C06E000BFF3
:103170004FF0010C02E000BF4FF0010C4DF804CD00
:103180004FEA410C7FEA6C5C4FEA430C18BF7FEAC0
:103190006C5C1BD001B050EA410C0CBF52EA430CEE
:1031A00091EA030F02BF90EA020F0020704710F16E
:1031B000000F91EA030F58BF994208BF90422CBFFD
:1031C000D8176FEAE37040F0010070474FEA410CF6
:1031D0007FEA6C5C02D150EA013C07D14FEA430C14
:1031E0007FEA6C5CD6D152EA033CD3D05DF8040B85
:1031F000704700BF8446104662468C4619466346B7
:1032000000E000BF01B5FFF7B7FF002848BF10F18D
:10321000000F01BD4DF808EDFFF7F4FF0CBF0120D2
:1032200000205DF808FB00BF4DF808EDFFF7EAFF4E
:1032300034BF012000205DF808FB00BF4DF808ED09
:10324000FFF7E0FF94BF012000205DF808FB00BFFE
:103250004DF808EDFFF7CEFF94BF012000205DF888
:1032600008FB00BF4DF808EDFFF7C4FF34BF012095
:1032700000205DF808FB00BF4FEA4102B2F1E043D5
:1032800024BFB3F5001CDCF1FE5C0DD901F0004C4D
:103290004FEAC0024CEA5070B2F1004F40EB83009D
:1032A00008BF20F00100704711F0804F21D113F1C9
:1032B0003872BCBF01F00040704741F480114FEA02
:1032C0005252C2F11802C2F1200C10FA0CF320FA8B
:1032D00002F018BF40F001004FEAC1234FEAD323A8
:1032E00003FA0CFC40EA0C0023FA02F34FEA430312
:1032F000CCE77FEA625307D150EA01331EBF4FF09B
:10330000FE4040F44000704701F0004040F0FE40B5
:1033100040F40000704700BF80F0004002E000BFB2
:1033200081F0004142001FBF5FEA410392EA030FB0
:103330007FEA226C7FEA236C6AD04FEA1262D2EBFA
:103340001363C1BFD218414048404140B8BF5B42FF
:10335000192B88BF704710F0004F40F4000020F098
:103360007F4018BF404211F0004F41F4000121F0AE
:103370007F4118BF494292EA030F3FD0A2F10102F8
:1033800041FA03FC10EB0C00C3F1200301FA03F136
:1033900000F0004302D5494260EB4000B0F5000F59
:1033A00013D3B0F1807F06D340084FEA310102F118
:1033B0000102FE2A51D2B1F1004F40EBC25008BFCA
:1033C00020F0010040EA03007047490040EB000094
:1033D00010F4000FA2F10102EDD1B0FA80FCACF1C3
:1033E000080CB2EB0C0200FA0CF0AABF00EBC250C2
:1033F00052421843BCBFD0401843704792F0000FB0
:1034000081F4000106BF80F400000132013BB5E702
:103410004FEA41037FEA226C18BF7FEA236C21D078
:1034200092EA030F04D092F0000F08BF08467047DD
:1034300090EA010F1CBF0020704712F07F4F04D1AB
:10344000400028BF40F00040704712F100723CBFBE
:1034500000F50000704700F0004343F0FE4040F4E8
:10346000000070477FEA226216BF08467FEA2363A6
:103470000146420206BF5FEA412390EA010F40F491
:10348000800070474FF0000304E000BF10F00043DD
:1034900048BF40425FEA000C08BF704743F09643C4
:1034A00001464FF000001CE050EA010208BF7047DF
:1034B0004FF000030AE000BF50EA010208BF704766
:1034C00011F0004302D5404261EB41015FEA010C7B
:1034D00002BF84460146002043F0B64308BFA3F173
:1034E0008053A3F50003BCFA8CF2083AA3EBC25355
:1034F00010DB01FA02FC634400FA02FCC2F1200274
:10350000BCF1004F20FA02F243EB020008BF20F0AA
:103510000100704702F1200201FA02FCC2F1200210
:1035200050EA4C0021FA02F243EB020008BF20EA05
:10353000DC7070474FF0FF0C1CEAD0521EBF1CEA33
:10354000D15392EA0C0F93EA0C0F6FD01A4480EA21
:10355000010C400218BF5FEA41211ED04FF000630A
:1035600043EA501043EA5111A0FB01310CF0004036
:10357000B1F5000F3EBF490041EAD3715B0040EA5C
:10358000010062F17F02FD2A1DD8B3F1004F40EB2C
:10359000C25008BF20F00100704790F0000F0CF0FF
:1035A000004C08BF49024CEA502040EA51207F3AC3
:1035B000C2BFD2F1FF0340EAC250704740F400009E
:1035C0004FF00003013A5DDC12F1190FDCBF00F08F
:1035D00000407047C2F10002410021FA02F1C2F13D
:1035E000200200FA02FC5FEA310040F1000053EAD9
:1035F0004C0308BF20EADC70704792F0000F00F027
:10360000004C02BF400010F4000F013AF9D040EA2C
:103610000C0093F0000F01F0004C02BF490011F4C0
:10362000000F013BF9D041EA0C018FE70CEAD153BE
:1036300092EA0C0F18BF93EA0C0F0AD030F0004C3E
:1036400018BF31F0004CD8D180EA010000F00040F2
:10365000704790F0000F17BF90F0004F084691F0B0
:10366000000F91F0004F14D092EA0C0F01D14202EA
:103670000FD193EA0C0F03D14B0218BF084608D1B3
:1036800080EA010000F0004040F0FE4040F40000FD
:10369000704740F0FE4040F4400070474FF0FF0C90
:1036A0001CEAD0521EBF1CEAD15392EA0C0F93EAD7
:1036B0000C0F69D0A2EB030280EA010C49024FEA29
:1036C000402037D04FF0805343EA111143EA1013E2
:1036D0000CF000408B4238BF5B0042F17D024FF49A
:1036E000000C8B4224BF5B1A40EA0C00B3EB510F75
:1036F00024BFA3EB510340EA5C00B3EB910F24BF5E
:10370000A3EB910340EA9C00B3EBD10F24BFA3EBE2
:10371000D10340EADC001B0118BF5FEA1C1CE0D1AA
:10372000FD2A3FF650AF8B4240EBC25008BF20F05D
:10373000010070470CF0004C4CEA50207F32C2BFB1
:10374000D2F1FF0340EAC250704740F400004FF04E
:103750000003013A37E792F0000F00F0004C02BF7F
:10376000400010F4000F013AF9D040EA0C0093F049
:10377000000F01F0004C02BF490011F4000F013BA3
:10378000F9D041EA0C0195E70CEAD15392EA0C0F0B
:1037900008D142027FF47DAF93EA0C0F7FF470AF43
:1037A000084676E793EA0C0F04D14B023FF44CAF86
:1037B00008466EE730F0004C18BF31F0004CCAD11B
:1037C00030F000427FF45CAF31F000437FF43CAF57
:1037D0005FE700BF4FEA4002B2F1FE4F0FD34FF058
:1037E0009E03B3EB12620DD94FEA002343F000436E
:1037F00010F0004F23FA02F018BF404270474FF01C
:103800000000704712F1610F01D1420205D110F0A2
:10381000004008BF6FF0004070474FF00000704755
:0400000508000000EF
:00000001FF
